{"contracts/Verifier.sol":{"PlonkVerifier":{"abi":[{"inputs":[{"internalType":"uint256[24]","name":"_proof","type":"uint256[24]"},{"internalType":"uint256[2]","name":"_pubSignals","type":"uint256[2]"}],"name":"verifyProof","outputs":[{"internalType":"bool","name":"","type":"bool"}],"stateMutability":"view","type":"function"}],"evm":{"bytecode":{"linkReferences":{},"object":"608060405234801561001057600080fd5b506115e0806100206000396000f3fe608060405234801561001057600080fd5b506004361061002b5760003560e01c8063c0e9d81c14610030575b600080fd5b61004361003e366004611525565b610057565b604051901515815260200160405180910390f35b60006114b6565b600080600184846000805b821561008b575092938183058581029091039350909181830290039081610069565b505050600181111561009c57600080fd5b505060008112156100aa5783015b9392505050565b60405181602084028301815160208301925060005b828410156100f75781855260008051602061158b8339815191528451830991506020850194506020840193506100c6565b61010f60008051602061158b8339815191528361005e565b91506020850394506020840393508592505b828411156101665760008051602061158b83398151915285518309905060008051602061158b83398151915284518309818552601f1995860195909401939150610121565b5090915250505050565b60008051602061158b833981519152811061018f576000805260206000f35b50565b61019e61024435610170565b6101aa61026435610170565b6101b661028435610170565b6101c26102a435610170565b6101ce6102c435610170565b6101da6102e435610170565b565b604080517f0d07f257198a6fe68ace4f381a159dab13aa0ae1cbf6277dbbb838d866fb112281527f08e550202bdad1030b43f40b92ae769aca8ca9284f122e0b0a4df8fbe4a29cf460208083019182527f305b375fb105d6947b4709c009e53faa1f2b3f46e5ea7fc071d8b8769209d33b8385019081527f06d606843c65a58ef6b623a6496fca88c7033ba4025fb090e8c743eec2d2cb9f606085019081527f205da991ca6ebba85035755d47d0972efd7d6b350f57ee0a0d5281b8b94a85546080808701919091527f108bbfc85b722cbb6b437964c3bcc326bef7804e98ab65bec5d73aebb3dbf91c60a08701527f15f4ca99dc32da9aa8539941009ec10c2ab0bb08037f22615e28f32e2e7c146860c08701527f08ca54d4cb572c821395a6c58104d7c2a81a9227e43133cea5908801cd88547560e08701527f20f2b57cdea69ac45e1d6eeb758bdc93807997612cbbb9679470e0294fd3f58b6101008701527f0776c84f3c48b02e5cad70cf1b5e23f1199623a48b20b59b335d89821b5ffad56101208701527f0dc047c2a4ceaab0bb2caa4950f0cc59ed1a58f662bde1e5e04fe7b2327db8f76101408701527f0def717d0c773b5a527a6ce2f07efd138bb145ccecbe4565622ffdd2112fe8fd6101608701527f1af3941eca3de3404d2077652186a11867646fe7aa20bbe1f8b5d359bc30a2e76101808701527f173a3d4d26c247c409c8177c59d625418d986791d982a31517db6318f853cc7a6101a08701527f27102cbb57feabf416a75b0171655915d270ab8459f74b9f20d6053c102d80476101c08701527f137f8ebe77615bd5db4c3e83b8d81597c606179876397c65efc98163125f09006101e08701528835610200870152888401356102208701526004356102408701526024356102608701526044356102808701526064356102a08701526084356102c087015260a4356102e0870152610300862060008051602061158b8339815191529081900689860181815295909520819006978901978852848752965190945260c43590915260e435905290822083900680855290929091908280096102c08501528181526101043560208201526020610104013560408201526101443560608201526020610144013560808201526101843560a08201526020610184013560c082015260008051602061158b83398151915260e082200691508160608501528181526102443560208201526102643560408201526102843560608201526102a43560808201526102c43560a08201526102e43560c082015260008051602061158b83398151915260e08220068060c086015260008051602061158b83398151915283850960a086015260008051602061158b833981519152838409925060008051602061158b833981519152838409925060008051602061158b833981519152838409925060008051602061158b833981519152838409925060008051602061158b833981519152838409925060008051602061158b833981519152838409925060008051602061158b833981519152838409925060008051602061158b833981519152838409925060008051602061158b833981519152838409925060008051602061158b833981519152838409925060008051602061158b833981519152838409925060008051602061158b833981519152838409925082608086015260008051602061158b833981519152806001850301069250826102e08601528261030086015260008051602061158b83398151915281820992508260e086015260008051602061158b83398151915281840992508261010086015260008051602061158b83398151915281840992508261012086015260008051602061158b833981519152818409610140860152506101c43581526101e43560208201526102043560408201526102243560608201526080902060008051602061158b833981519152900661016090930192909252505050565b600160008051602061158b8339815191528060008051602061158b8339815191528360608601510301066110000961032083015260008051602061158b8339815191527f0931d596de2fd10f01ddd073fd5a90a976f169c76f039bb91c4775720042d43a8209905060008051602061158b8339815191528060008051602061158b83398151915283606086015103010661100009610340830152610827600361030084016100b1565b6102e08201516001915060008051602061158b833981519152816103208501510961032084015260008051602061158b8339815191527f0931d596de2fd10f01ddd073fd5a90a976f169c76f039bb91c4775720042d43a8309915060008051602061158b8339815191528082610340860151098309610340840152505050565b600060008051602061158b8339815191528060008051602061158b83398151915260008601356103208601510983030106905060008051602061158b8339815191528060008051602061158b83398151915260208601356103408601510983030106905080610180830152505050565b61018081015160008051602061158b8339815191526102c08301516103208401510960008051602061158b833981519152806102a435602086015109610244350860008051602061158b83398151915260408501518208905060008051602061158b833981519152806102c435602087015109610264350860008051602061158b83398151915260408601518208905060008051602061158b8339815191526040860151610284350860008051602061158b8339815191528160008051602061158b833981519152848609099250505060008051602061158b8339815191526102e4358209905060008051602061158b83398151915260008501518209905060008051602061158b833981519152808360008051602061158b83398151915203068408925060008051602061158b833981519152808260008051602061158b8339815191520306840892505050806101a08301525050565b6040518151815260208201516020820152825160408201526020830151606082015260408260808360066107d05a03fa905080610ab0576000805260206000f35b505050565b50505050565b600060405183815284602082015285604082015260408160608360076107d05a03fa915081610aee576000805260206000f35b825160408201526020830151606082015260408360808360066107d05a03fa91505080610b1f576000805260206000f35b5050505050565b600060405183815284602082015285604082015260408360608360076107d05a03fa91505080610b1f576000805260206000f35b610ab0836020840151845184610b26565b6101c0810160408201516040516101008101604052610bcf7f0776c84f3c48b02e5cad70cf1b5e23f1199623a48b20b59b335d89821b5ffad57f20f2b57cdea69ac45e1d6eeb758bdc93807997612cbbb9679470e0294fd3f58b8590815260200152565b610c3260008051602061158b8339815191526102643561024435097f08e550202bdad1030b43f40b92ae769aca8ca9284f122e0b0a4df8fbe4a29cf47f0d07f257198a6fe68ace4f381a159dab13aa0ae1cbf6277dbbb838d866fb112286610abb565b610c81610244357f06d606843c65a58ef6b623a6496fca88c7033ba4025fb090e8c743eec2d2cb9f7f305b375fb105d6947b4709c009e53faa1f2b3f46e5ea7fc071d8b8769209d33b86610abb565b610cd0610264357f108bbfc85b722cbb6b437964c3bcc326bef7804e98ab65bec5d73aebb3dbf91c7f205da991ca6ebba85035755d47d0972efd7d6b350f57ee0a0d5281b8b94a855486610abb565b610d1f610284357f08ca54d4cb572c821395a6c58104d7c2a81a9227e43133cea5908801cd8854757f15f4ca99dc32da9aa8539941009ec10c2ab0bb08037f22615e28f32e2e7c146886610abb565b60a084015160008051602061158b8339815191528360008051602061158b8339815191528361024435080860008051602061158b8339815191528460008051602061158b833981519152806002860961026435080860008051602061158b8339815191528560008051602061158b8339815191528060038709610284350808925060008051602061158b833981519152600088015160008051602061158b8339815191528560008051602061158b833981519152858709090960008051602061158b8339815191526102c08901516103208a01510960c43560c087015260e43560e0870152610e3960008051602061158b8339815191526101608b015160008051602061158b8339815191528486080860c0880188610b5a565b505060008051602061158b8339815191528560008051602061158b833981519152806102a43560208c015109610244350808915060008051602061158b8339815191528560008051602061158b833981519152806102c43560208c015109610264350808905060008051602061158b8339815191526102e43560008051602061158b83398151915260208a015160008b015109099250610f4060008051602061158b8339815191528460008051602061158b833981519152848609097f137f8ebe77615bd5db4c3e83b8d81597c606179876397c65efc98163125f09007f27102cbb57feabf416a75b0171655915d270ab8459f74b9f20d6053c102d804760408801610b26565b5050506101043560808201526101243560a0820152610f716080850151602061014401356101443560808501610abb565b608084015160008051602061158b8339815191529080099150610f9f826101a4356101843560808501610abb565b610fbb6102e085015160a0830151608084015160808501610b26565b60008051602061156b833981519152602060408301015160008051602061156b8339815191520306602060408301015260008051602061156b83398151915260a082015160008051602061156b833981519152030660a082015261101f8184610a6f565b61102c6040820184610a6f565b610ab56080820184610a6f565b6101c081015161020082019081526101e082015161022083015260c08201516110689060243560043584610abb565b60e082015161107d9060643560443584610abb565b6101008201516110939060a43560843584610abb565b6110e46101208301517f0def717d0c773b5a527a6ce2f07efd138bb145ccecbe4565622ffdd2112fe8fd7f0dc047c2a4ceaab0bb2caa4950f0cc59ed1a58f662bde1e5e04fe7b2327db8f784610abb565b6111356101408301517f173a3d4d26c247c409c8177c59d625418d986791d982a31517db6318f853cc7a7f1af3941eca3de3404d2077652186a11867646fe7aa20bbe1f8b5d359bc30a2e784610abb565b5050565b60008051602061158b8339815191526101a082015160008051602061158b833981519152030660008051602061158b8339815191528060c084015161024435098208905060008051602061158b8339815191528060e084015161026435098208905060008051602061158b8339815191528061010084015161028435098208905060008051602061158b833981519152806101208401516102a435098208905060008051602061158b833981519152806101408401516102c435098208905060008051602061158b833981519152806101608401516102e435098208905061113581600260016102408601610b26565b6000604051610240810160405261018081016101c08201610200830161125b6101c48481358152602091820135910152565b61020435825261022435602083015261127a6101608701518386610b5a565b6112848385610a6f565b60008051602061156b833981519152602085015160008051602061156b833981519152030660208501527f26186a2d65ee4d2f9c9a5b91f86597d35f192cd120caf7e935d8443d1938e23d60408501527f30441fd1b5d3370482c42152a8899027716989a6996c2535bc9f7fee8aaef79e60608501527f1970ea81dd6992adfbc571effb03503adbbb6a857f578403c6c40e22d65b3c0260808501527f054793348f12c0cf5622c340573cb277586319de359ab9389778f689786b1e4860a085015261135860608701518460c08701610b5a565b60008051602061158b833981519152606087015161016088015109925060008051602061158b8339815191527f0931d596de2fd10f01ddd073fd5a90a976f169c76f039bb91c4775720042d43a840992506113b4838383610b5a565b6113c18160c08601610a6f565b5050506113d5610200840160c08301610a6f565b6102608301805160008051602061156b833981519152908103069052611402610240840160c08301610a6f565b7f198e9393920d483a7260bfb731fb5d25f1aa493335a9e71297e485b7aef312c26101008201527f1800deef121f1e76426a00665e5c4479674322d4f75edadd46debd5cd992f6ed6101208201527f090689d0585ff075ec9e99ad690c3395bc4b313370b38ef355acdadcd122975b6101408201527f12c85ea5db8c6deb4aab71808dcb408fe3d1e7690c43d37b4ce6cc0166fa7daa6101608201526020816101808360086107d05a03fa90511692915050565b60405161036081016040526114c9610192565b6114d383826101dc565b6114dc8161077e565b6114e683826108a7565b6114ef81610917565b6114f881610b6b565b61150181611039565b61150a81611139565b61151381611229565b61036082036040528060005260206000f35b60008061034080848603121561153a57600080fd5b61030084018581111561154c57600080fd5b84935085828601111561155e57600080fd5b8092505050925092905056fe30644e72e131a029b85045b68181585d97816a916871ca8d3c208c16d87cfd4730644e72e131a029b85045b68181585d2833e84879b9709143e1f593f0000001a2646970667358221220f86ba9e8a16e7987d41c19586d8dc9ab94ac031d5c8c083fcdd97ddfc459865f64736f6c63430008140033","opcodes":"PUSH1 0x80 PUSH1 0x40 MSTORE CALLVALUE DUP1 ISZERO PUSH2 0x10 JUMPI PUSH1 0x0 DUP1 REVERT JUMPDEST POP PUSH2 0x15E0 DUP1 PUSH2 0x20 PUSH1 0x0 CODECOPY PUSH1 0x0 RETURN INVALID PUSH1 0x80 PUSH1 0x40 MSTORE CALLVALUE DUP1 ISZERO PUSH2 0x10 JUMPI PUSH1 0x0 DUP1 REVERT JUMPDEST POP PUSH1 0x4 CALLDATASIZE LT PUSH2 0x2B JUMPI PUSH1 0x0 CALLDATALOAD PUSH1 0xE0 SHR DUP1 PUSH4 0xC0E9D81C EQ PUSH2 0x30 JUMPI JUMPDEST PUSH1 0x0 DUP1 REVERT JUMPDEST PUSH2 0x43 PUSH2 0x3E CALLDATASIZE PUSH1 0x4 PUSH2 0x1525 JUMP JUMPDEST PUSH2 0x57 JUMP JUMPDEST PUSH1 0x40 MLOAD SWAP1 ISZERO ISZERO DUP2 MSTORE PUSH1 0x20 ADD PUSH1 0x40 MLOAD DUP1 SWAP2 SUB SWAP1 RETURN JUMPDEST PUSH1 0x0 PUSH2 0x14B6 JUMP JUMPDEST PUSH1 0x0 DUP1 PUSH1 0x1 DUP5 DUP5 PUSH1 0x0 DUP1 JUMPDEST DUP3 ISZERO PUSH2 0x8B JUMPI POP SWAP3 SWAP4 DUP2 DUP4 SDIV DUP6 DUP2 MUL SWAP1 SWAP2 SUB SWAP4 POP SWAP1 SWAP2 DUP2 DUP4 MUL SWAP1 SUB SWAP1 DUP2 PUSH2 0x69 JUMP JUMPDEST POP POP POP PUSH1 0x1 DUP2 GT ISZERO PUSH2 0x9C JUMPI PUSH1 0x0 DUP1 REVERT JUMPDEST POP POP PUSH1 0x0 DUP2 SLT ISZERO PUSH2 0xAA JUMPI DUP4 ADD JUMPDEST SWAP4 SWAP3 POP POP POP JUMP JUMPDEST PUSH1 0x40 MLOAD DUP2 PUSH1 0x20 DUP5 MUL DUP4 ADD DUP2 MLOAD PUSH1 0x20 DUP4 ADD SWAP3 POP PUSH1 0x0 JUMPDEST DUP3 DUP5 LT ISZERO PUSH2 0xF7 JUMPI DUP2 DUP6 MSTORE PUSH1 0x0 DUP1 MLOAD PUSH1 0x20 PUSH2 0x158B DUP4 CODECOPY DUP2 MLOAD SWAP2 MSTORE DUP5 MLOAD DUP4 MULMOD SWAP2 POP PUSH1 0x20 DUP6 ADD SWAP5 POP PUSH1 0x20 DUP5 ADD SWAP4 POP PUSH2 0xC6 JUMP JUMPDEST PUSH2 0x10F PUSH1 0x0 DUP1 MLOAD PUSH1 0x20 PUSH2 0x158B DUP4 CODECOPY DUP2 MLOAD SWAP2 MSTORE DUP4 PUSH2 0x5E JUMP JUMPDEST SWAP2 POP PUSH1 0x20 DUP6 SUB SWAP5 POP PUSH1 0x20 DUP5 SUB SWAP4 POP DUP6 SWAP3 POP JUMPDEST DUP3 DUP5 GT ISZERO PUSH2 0x166 JUMPI PUSH1 0x0 DUP1 MLOAD PUSH1 0x20 PUSH2 0x158B DUP4 CODECOPY DUP2 MLOAD SWAP2 MSTORE DUP6 MLOAD DUP4 MULMOD SWAP1 POP PUSH1 0x0 DUP1 MLOAD PUSH1 0x20 PUSH2 0x158B DUP4 CODECOPY DUP2 MLOAD SWAP2 MSTORE DUP5 MLOAD DUP4 MULMOD DUP2 DUP6 MSTORE PUSH1 0x1F NOT SWAP6 DUP7 ADD SWAP6 SWAP1 SWAP5 ADD SWAP4 SWAP2 POP PUSH2 0x121 JUMP JUMPDEST POP SWAP1 SWAP2 MSTORE POP POP POP POP JUMP JUMPDEST PUSH1 0x0 DUP1 MLOAD PUSH1 0x20 PUSH2 0x158B DUP4 CODECOPY DUP2 MLOAD SWAP2 MSTORE DUP2 LT PUSH2 0x18F JUMPI PUSH1 0x0 DUP1 MSTORE PUSH1 0x20 PUSH1 0x0 RETURN JUMPDEST POP JUMP JUMPDEST PUSH2 0x19E PUSH2 0x244 CALLDATALOAD PUSH2 0x170 JUMP JUMPDEST PUSH2 0x1AA PUSH2 0x264 CALLDATALOAD PUSH2 0x170 JUMP JUMPDEST PUSH2 0x1B6 PUSH2 0x284 CALLDATALOAD PUSH2 0x170 JUMP JUMPDEST PUSH2 0x1C2 PUSH2 0x2A4 CALLDATALOAD PUSH2 0x170 JUMP JUMPDEST PUSH2 0x1CE PUSH2 0x2C4 CALLDATALOAD PUSH2 0x170 JUMP JUMPDEST PUSH2 0x1DA PUSH2 0x2E4 CALLDATALOAD PUSH2 0x170 JUMP JUMPDEST JUMP JUMPDEST PUSH1 0x40 DUP1 MLOAD PUSH32 0xD07F257198A6FE68ACE4F381A159DAB13AA0AE1CBF6277DBBB838D866FB1122 DUP2 MSTORE PUSH32 0x8E550202BDAD1030B43F40B92AE769ACA8CA9284F122E0B0A4DF8FBE4A29CF4 PUSH1 0x20 DUP1 DUP4 ADD SWAP2 DUP3 MSTORE PUSH32 0x305B375FB105D6947B4709C009E53FAA1F2B3F46E5EA7FC071D8B8769209D33B DUP4 DUP6 ADD SWAP1 DUP2 MSTORE PUSH32 0x6D606843C65A58EF6B623A6496FCA88C7033BA4025FB090E8C743EEC2D2CB9F PUSH1 0x60 DUP6 ADD SWAP1 DUP2 MSTORE PUSH32 0x205DA991CA6EBBA85035755D47D0972EFD7D6B350F57EE0A0D5281B8B94A8554 PUSH1 0x80 DUP1 DUP8 ADD SWAP2 SWAP1 SWAP2 MSTORE PUSH32 0x108BBFC85B722CBB6B437964C3BCC326BEF7804E98AB65BEC5D73AEBB3DBF91C PUSH1 0xA0 DUP8 ADD MSTORE PUSH32 0x15F4CA99DC32DA9AA8539941009EC10C2AB0BB08037F22615E28F32E2E7C1468 PUSH1 0xC0 DUP8 ADD MSTORE PUSH32 0x8CA54D4CB572C821395A6C58104D7C2A81A9227E43133CEA5908801CD885475 PUSH1 0xE0 DUP8 ADD MSTORE PUSH32 0x20F2B57CDEA69AC45E1D6EEB758BDC93807997612CBBB9679470E0294FD3F58B PUSH2 0x100 DUP8 ADD MSTORE PUSH32 0x776C84F3C48B02E5CAD70CF1B5E23F1199623A48B20B59B335D89821B5FFAD5 PUSH2 0x120 DUP8 ADD MSTORE PUSH32 0xDC047C2A4CEAAB0BB2CAA4950F0CC59ED1A58F662BDE1E5E04FE7B2327DB8F7 PUSH2 0x140 DUP8 ADD MSTORE PUSH32 0xDEF717D0C773B5A527A6CE2F07EFD138BB145CCECBE4565622FFDD2112FE8FD PUSH2 0x160 DUP8 ADD MSTORE PUSH32 0x1AF3941ECA3DE3404D2077652186A11867646FE7AA20BBE1F8B5D359BC30A2E7 PUSH2 0x180 DUP8 ADD MSTORE PUSH32 0x173A3D4D26C247C409C8177C59D625418D986791D982A31517DB6318F853CC7A PUSH2 0x1A0 DUP8 ADD MSTORE PUSH32 0x27102CBB57FEABF416A75B0171655915D270AB8459F74B9F20D6053C102D8047 PUSH2 0x1C0 DUP8 ADD MSTORE PUSH32 0x137F8EBE77615BD5DB4C3E83B8D81597C606179876397C65EFC98163125F0900 PUSH2 0x1E0 DUP8 ADD MSTORE DUP9 CALLDATALOAD PUSH2 0x200 DUP8 ADD MSTORE DUP9 DUP5 ADD CALLDATALOAD PUSH2 0x220 DUP8 ADD MSTORE PUSH1 0x4 CALLDATALOAD PUSH2 0x240 DUP8 ADD MSTORE PUSH1 0x24 CALLDATALOAD PUSH2 0x260 DUP8 ADD MSTORE PUSH1 0x44 CALLDATALOAD PUSH2 0x280 DUP8 ADD MSTORE PUSH1 0x64 CALLDATALOAD PUSH2 0x2A0 DUP8 ADD MSTORE PUSH1 0x84 CALLDATALOAD PUSH2 0x2C0 DUP8 ADD MSTORE PUSH1 0xA4 CALLDATALOAD PUSH2 0x2E0 DUP8 ADD MSTORE PUSH2 0x300 DUP7 KECCAK256 PUSH1 0x0 DUP1 MLOAD PUSH1 0x20 PUSH2 0x158B DUP4 CODECOPY DUP2 MLOAD SWAP2 MSTORE SWAP1 DUP2 SWAP1 MOD DUP10 DUP7 ADD DUP2 DUP2 MSTORE SWAP6 SWAP1 SWAP6 KECCAK256 DUP2 SWAP1 MOD SWAP8 DUP10 ADD SWAP8 DUP9 MSTORE DUP5 DUP8 MSTORE SWAP7 MLOAD SWAP1 SWAP5 MSTORE PUSH1 0xC4 CALLDATALOAD SWAP1 SWAP2 MSTORE PUSH1 0xE4 CALLDATALOAD SWAP1 MSTORE SWAP1 DUP3 KECCAK256 DUP4 SWAP1 MOD DUP1 DUP6 MSTORE SWAP1 SWAP3 SWAP1 SWAP2 SWAP1 DUP3 DUP1 MULMOD PUSH2 0x2C0 DUP6 ADD MSTORE DUP2 DUP2 MSTORE PUSH2 0x104 CALLDATALOAD PUSH1 0x20 DUP3 ADD MSTORE PUSH1 0x20 PUSH2 0x104 ADD CALLDATALOAD PUSH1 0x40 DUP3 ADD MSTORE PUSH2 0x144 CALLDATALOAD PUSH1 0x60 DUP3 ADD MSTORE PUSH1 0x20 PUSH2 0x144 ADD CALLDATALOAD PUSH1 0x80 DUP3 ADD MSTORE PUSH2 0x184 CALLDATALOAD PUSH1 0xA0 DUP3 ADD MSTORE PUSH1 0x20 PUSH2 0x184 ADD CALLDATALOAD PUSH1 0xC0 DUP3 ADD MSTORE PUSH1 0x0 DUP1 MLOAD PUSH1 0x20 PUSH2 0x158B DUP4 CODECOPY DUP2 MLOAD SWAP2 MSTORE PUSH1 0xE0 DUP3 KECCAK256 MOD SWAP2 POP DUP2 PUSH1 0x60 DUP6 ADD MSTORE DUP2 DUP2 MSTORE PUSH2 0x244 CALLDATALOAD PUSH1 0x20 DUP3 ADD MSTORE PUSH2 0x264 CALLDATALOAD PUSH1 0x40 DUP3 ADD MSTORE PUSH2 0x284 CALLDATALOAD PUSH1 0x60 DUP3 ADD MSTORE PUSH2 0x2A4 CALLDATALOAD PUSH1 0x80 DUP3 ADD MSTORE PUSH2 0x2C4 CALLDATALOAD PUSH1 0xA0 DUP3 ADD MSTORE PUSH2 0x2E4 CALLDATALOAD PUSH1 0xC0 DUP3 ADD MSTORE PUSH1 0x0 DUP1 MLOAD PUSH1 0x20 PUSH2 0x158B DUP4 CODECOPY DUP2 MLOAD SWAP2 MSTORE PUSH1 0xE0 DUP3 KECCAK256 MOD DUP1 PUSH1 0xC0 DUP7 ADD MSTORE PUSH1 0x0 DUP1 MLOAD PUSH1 0x20 PUSH2 0x158B DUP4 CODECOPY DUP2 MLOAD SWAP2 MSTORE DUP4 DUP6 MULMOD PUSH1 0xA0 DUP7 ADD MSTORE PUSH1 0x0 DUP1 MLOAD PUSH1 0x20 PUSH2 0x158B DUP4 CODECOPY DUP2 MLOAD SWAP2 MSTORE DUP4 DUP5 MULMOD SWAP3 POP PUSH1 0x0 DUP1 MLOAD PUSH1 0x20 PUSH2 0x158B DUP4 CODECOPY DUP2 MLOAD SWAP2 MSTORE DUP4 DUP5 MULMOD SWAP3 POP PUSH1 0x0 DUP1 MLOAD PUSH1 0x20 PUSH2 0x158B DUP4 CODECOPY DUP2 MLOAD SWAP2 MSTORE DUP4 DUP5 MULMOD SWAP3 POP PUSH1 0x0 DUP1 MLOAD PUSH1 0x20 PUSH2 0x158B DUP4 CODECOPY DUP2 MLOAD SWAP2 MSTORE DUP4 DUP5 MULMOD SWAP3 POP PUSH1 0x0 DUP1 MLOAD PUSH1 0x20 PUSH2 0x158B DUP4 CODECOPY DUP2 MLOAD SWAP2 MSTORE DUP4 DUP5 MULMOD SWAP3 POP PUSH1 0x0 DUP1 MLOAD PUSH1 0x20 PUSH2 0x158B DUP4 CODECOPY DUP2 MLOAD SWAP2 MSTORE DUP4 DUP5 MULMOD SWAP3 POP PUSH1 0x0 DUP1 MLOAD PUSH1 0x20 PUSH2 0x158B DUP4 CODECOPY DUP2 MLOAD SWAP2 MSTORE DUP4 DUP5 MULMOD SWAP3 POP PUSH1 0x0 DUP1 MLOAD PUSH1 0x20 PUSH2 0x158B DUP4 CODECOPY DUP2 MLOAD SWAP2 MSTORE DUP4 DUP5 MULMOD SWAP3 POP PUSH1 0x0 DUP1 MLOAD PUSH1 0x20 PUSH2 0x158B DUP4 CODECOPY DUP2 MLOAD SWAP2 MSTORE DUP4 DUP5 MULMOD SWAP3 POP PUSH1 0x0 DUP1 MLOAD PUSH1 0x20 PUSH2 0x158B DUP4 CODECOPY DUP2 MLOAD SWAP2 MSTORE DUP4 DUP5 MULMOD SWAP3 POP PUSH1 0x0 DUP1 MLOAD PUSH1 0x20 PUSH2 0x158B DUP4 CODECOPY DUP2 MLOAD SWAP2 MSTORE DUP4 DUP5 MULMOD SWAP3 POP PUSH1 0x0 DUP1 MLOAD PUSH1 0x20 PUSH2 0x158B DUP4 CODECOPY DUP2 MLOAD SWAP2 MSTORE DUP4 DUP5 MULMOD SWAP3 POP DUP3 PUSH1 0x80 DUP7 ADD MSTORE PUSH1 0x0 DUP1 MLOAD PUSH1 0x20 PUSH2 0x158B DUP4 CODECOPY DUP2 MLOAD SWAP2 MSTORE DUP1 PUSH1 0x1 DUP6 SUB ADD MOD SWAP3 POP DUP3 PUSH2 0x2E0 DUP7 ADD MSTORE DUP3 PUSH2 0x300 DUP7 ADD MSTORE PUSH1 0x0 DUP1 MLOAD PUSH1 0x20 PUSH2 0x158B DUP4 CODECOPY DUP2 MLOAD SWAP2 MSTORE DUP2 DUP3 MULMOD SWAP3 POP DUP3 PUSH1 0xE0 DUP7 ADD MSTORE PUSH1 0x0 DUP1 MLOAD PUSH1 0x20 PUSH2 0x158B DUP4 CODECOPY DUP2 MLOAD SWAP2 MSTORE DUP2 DUP5 MULMOD SWAP3 POP DUP3 PUSH2 0x100 DUP7 ADD MSTORE PUSH1 0x0 DUP1 MLOAD PUSH1 0x20 PUSH2 0x158B DUP4 CODECOPY DUP2 MLOAD SWAP2 MSTORE DUP2 DUP5 MULMOD SWAP3 POP DUP3 PUSH2 0x120 DUP7 ADD MSTORE PUSH1 0x0 DUP1 MLOAD PUSH1 0x20 PUSH2 0x158B DUP4 CODECOPY DUP2 MLOAD SWAP2 MSTORE DUP2 DUP5 MULMOD PUSH2 0x140 DUP7 ADD MSTORE POP PUSH2 0x1C4 CALLDATALOAD DUP2 MSTORE PUSH2 0x1E4 CALLDATALOAD PUSH1 0x20 DUP3 ADD MSTORE PUSH2 0x204 CALLDATALOAD PUSH1 0x40 DUP3 ADD MSTORE PUSH2 0x224 CALLDATALOAD PUSH1 0x60 DUP3 ADD MSTORE PUSH1 0x80 SWAP1 KECCAK256 PUSH1 0x0 DUP1 MLOAD PUSH1 0x20 PUSH2 0x158B DUP4 CODECOPY DUP2 MLOAD SWAP2 MSTORE SWAP1 MOD PUSH2 0x160 SWAP1 SWAP4 ADD SWAP3 SWAP1 SWAP3 MSTORE POP POP POP JUMP JUMPDEST PUSH1 0x1 PUSH1 0x0 DUP1 MLOAD PUSH1 0x20 PUSH2 0x158B DUP4 CODECOPY DUP2 MLOAD SWAP2 MSTORE DUP1 PUSH1 0x0 DUP1 MLOAD PUSH1 0x20 PUSH2 0x158B DUP4 CODECOPY DUP2 MLOAD SWAP2 MSTORE DUP4 PUSH1 0x60 DUP7 ADD MLOAD SUB ADD MOD PUSH2 0x1000 MULMOD PUSH2 0x320 DUP4 ADD MSTORE PUSH1 0x0 DUP1 MLOAD PUSH1 0x20 PUSH2 0x158B DUP4 CODECOPY DUP2 MLOAD SWAP2 MSTORE PUSH32 0x931D596DE2FD10F01DDD073FD5A90A976F169C76F039BB91C4775720042D43A DUP3 MULMOD SWAP1 POP PUSH1 0x0 DUP1 MLOAD PUSH1 0x20 PUSH2 0x158B DUP4 CODECOPY DUP2 MLOAD SWAP2 MSTORE DUP1 PUSH1 0x0 DUP1 MLOAD PUSH1 0x20 PUSH2 0x158B DUP4 CODECOPY DUP2 MLOAD SWAP2 MSTORE DUP4 PUSH1 0x60 DUP7 ADD MLOAD SUB ADD MOD PUSH2 0x1000 MULMOD PUSH2 0x340 DUP4 ADD MSTORE PUSH2 0x827 PUSH1 0x3 PUSH2 0x300 DUP5 ADD PUSH2 0xB1 JUMP JUMPDEST PUSH2 0x2E0 DUP3 ADD MLOAD PUSH1 0x1 SWAP2 POP PUSH1 0x0 DUP1 MLOAD PUSH1 0x20 PUSH2 0x158B DUP4 CODECOPY DUP2 MLOAD SWAP2 MSTORE DUP2 PUSH2 0x320 DUP6 ADD MLOAD MULMOD PUSH2 0x320 DUP5 ADD MSTORE PUSH1 0x0 DUP1 MLOAD PUSH1 0x20 PUSH2 0x158B DUP4 CODECOPY DUP2 MLOAD SWAP2 MSTORE PUSH32 0x931D596DE2FD10F01DDD073FD5A90A976F169C76F039BB91C4775720042D43A DUP4 MULMOD SWAP2 POP PUSH1 0x0 DUP1 MLOAD PUSH1 0x20 PUSH2 0x158B DUP4 CODECOPY DUP2 MLOAD SWAP2 MSTORE DUP1 DUP3 PUSH2 0x340 DUP7 ADD MLOAD MULMOD DUP4 MULMOD PUSH2 0x340 DUP5 ADD MSTORE POP POP POP JUMP JUMPDEST PUSH1 0x0 PUSH1 0x0 DUP1 MLOAD PUSH1 0x20 PUSH2 0x158B DUP4 CODECOPY DUP2 MLOAD SWAP2 MSTORE DUP1 PUSH1 0x0 DUP1 MLOAD PUSH1 0x20 PUSH2 0x158B DUP4 CODECOPY DUP2 MLOAD SWAP2 MSTORE PUSH1 0x0 DUP7 ADD CALLDATALOAD PUSH2 0x320 DUP7 ADD MLOAD MULMOD DUP4 SUB ADD MOD SWAP1 POP PUSH1 0x0 DUP1 MLOAD PUSH1 0x20 PUSH2 0x158B DUP4 CODECOPY DUP2 MLOAD SWAP2 MSTORE DUP1 PUSH1 0x0 DUP1 MLOAD PUSH1 0x20 PUSH2 0x158B DUP4 CODECOPY DUP2 MLOAD SWAP2 MSTORE PUSH1 0x20 DUP7 ADD CALLDATALOAD PUSH2 0x340 DUP7 ADD MLOAD MULMOD DUP4 SUB ADD MOD SWAP1 POP DUP1 PUSH2 0x180 DUP4 ADD MSTORE POP POP POP JUMP JUMPDEST PUSH2 0x180 DUP2 ADD MLOAD PUSH1 0x0 DUP1 MLOAD PUSH1 0x20 PUSH2 0x158B DUP4 CODECOPY DUP2 MLOAD SWAP2 MSTORE PUSH2 0x2C0 DUP4 ADD MLOAD PUSH2 0x320 DUP5 ADD MLOAD MULMOD PUSH1 0x0 DUP1 MLOAD PUSH1 0x20 PUSH2 0x158B DUP4 CODECOPY DUP2 MLOAD SWAP2 MSTORE DUP1 PUSH2 0x2A4 CALLDATALOAD PUSH1 0x20 DUP7 ADD MLOAD MULMOD PUSH2 0x244 CALLDATALOAD ADDMOD PUSH1 0x0 DUP1 MLOAD PUSH1 0x20 PUSH2 0x158B DUP4 CODECOPY DUP2 MLOAD SWAP2 MSTORE PUSH1 0x40 DUP6 ADD MLOAD DUP3 ADDMOD SWAP1 POP PUSH1 0x0 DUP1 MLOAD PUSH1 0x20 PUSH2 0x158B DUP4 CODECOPY DUP2 MLOAD SWAP2 MSTORE DUP1 PUSH2 0x2C4 CALLDATALOAD PUSH1 0x20 DUP8 ADD MLOAD MULMOD PUSH2 0x264 CALLDATALOAD ADDMOD PUSH1 0x0 DUP1 MLOAD PUSH1 0x20 PUSH2 0x158B DUP4 CODECOPY DUP2 MLOAD SWAP2 MSTORE PUSH1 0x40 DUP7 ADD MLOAD DUP3 ADDMOD SWAP1 POP PUSH1 0x0 DUP1 MLOAD PUSH1 0x20 PUSH2 0x158B DUP4 CODECOPY DUP2 MLOAD SWAP2 MSTORE PUSH1 0x40 DUP7 ADD MLOAD PUSH2 0x284 CALLDATALOAD ADDMOD PUSH1 0x0 DUP1 MLOAD PUSH1 0x20 PUSH2 0x158B DUP4 CODECOPY DUP2 MLOAD SWAP2 MSTORE DUP2 PUSH1 0x0 DUP1 MLOAD PUSH1 0x20 PUSH2 0x158B DUP4 CODECOPY DUP2 MLOAD SWAP2 MSTORE DUP5 DUP7 MULMOD MULMOD SWAP3 POP POP POP PUSH1 0x0 DUP1 MLOAD PUSH1 0x20 PUSH2 0x158B DUP4 CODECOPY DUP2 MLOAD SWAP2 MSTORE PUSH2 0x2E4 CALLDATALOAD DUP3 MULMOD SWAP1 POP PUSH1 0x0 DUP1 MLOAD PUSH1 0x20 PUSH2 0x158B DUP4 CODECOPY DUP2 MLOAD SWAP2 MSTORE PUSH1 0x0 DUP6 ADD MLOAD DUP3 MULMOD SWAP1 POP PUSH1 0x0 DUP1 MLOAD PUSH1 0x20 PUSH2 0x158B DUP4 CODECOPY DUP2 MLOAD SWAP2 MSTORE DUP1 DUP4 PUSH1 0x0 DUP1 MLOAD PUSH1 0x20 PUSH2 0x158B DUP4 CODECOPY DUP2 MLOAD SWAP2 MSTORE SUB MOD DUP5 ADDMOD SWAP3 POP PUSH1 0x0 DUP1 MLOAD PUSH1 0x20 PUSH2 0x158B DUP4 CODECOPY DUP2 MLOAD SWAP2 MSTORE DUP1 DUP3 PUSH1 0x0 DUP1 MLOAD PUSH1 0x20 PUSH2 0x158B DUP4 CODECOPY DUP2 MLOAD SWAP2 MSTORE SUB MOD DUP5 ADDMOD SWAP3 POP POP POP DUP1 PUSH2 0x1A0 DUP4 ADD MSTORE POP POP JUMP JUMPDEST PUSH1 0x40 MLOAD DUP2 MLOAD DUP2 MSTORE PUSH1 0x20 DUP3 ADD MLOAD PUSH1 0x20 DUP3 ADD MSTORE DUP3 MLOAD PUSH1 0x40 DUP3 ADD MSTORE PUSH1 0x20 DUP4 ADD MLOAD PUSH1 0x60 DUP3 ADD MSTORE PUSH1 0x40 DUP3 PUSH1 0x80 DUP4 PUSH1 0x6 PUSH2 0x7D0 GAS SUB STATICCALL SWAP1 POP DUP1 PUSH2 0xAB0 JUMPI PUSH1 0x0 DUP1 MSTORE PUSH1 0x20 PUSH1 0x0 RETURN JUMPDEST POP POP POP JUMP JUMPDEST POP POP POP POP JUMP JUMPDEST PUSH1 0x0 PUSH1 0x40 MLOAD DUP4 DUP2 MSTORE DUP5 PUSH1 0x20 DUP3 ADD MSTORE DUP6 PUSH1 0x40 DUP3 ADD MSTORE PUSH1 0x40 DUP2 PUSH1 0x60 DUP4 PUSH1 0x7 PUSH2 0x7D0 GAS SUB STATICCALL SWAP2 POP DUP2 PUSH2 0xAEE JUMPI PUSH1 0x0 DUP1 MSTORE PUSH1 0x20 PUSH1 0x0 RETURN JUMPDEST DUP3 MLOAD PUSH1 0x40 DUP3 ADD MSTORE PUSH1 0x20 DUP4 ADD MLOAD PUSH1 0x60 DUP3 ADD MSTORE PUSH1 0x40 DUP4 PUSH1 0x80 DUP4 PUSH1 0x6 PUSH2 0x7D0 GAS SUB STATICCALL SWAP2 POP POP DUP1 PUSH2 0xB1F JUMPI PUSH1 0x0 DUP1 MSTORE PUSH1 0x20 PUSH1 0x0 RETURN JUMPDEST POP POP POP POP POP JUMP JUMPDEST PUSH1 0x0 PUSH1 0x40 MLOAD DUP4 DUP2 MSTORE DUP5 PUSH1 0x20 DUP3 ADD MSTORE DUP6 PUSH1 0x40 DUP3 ADD MSTORE PUSH1 0x40 DUP4 PUSH1 0x60 DUP4 PUSH1 0x7 PUSH2 0x7D0 GAS SUB STATICCALL SWAP2 POP POP DUP1 PUSH2 0xB1F JUMPI PUSH1 0x0 DUP1 MSTORE PUSH1 0x20 PUSH1 0x0 RETURN JUMPDEST PUSH2 0xAB0 DUP4 PUSH1 0x20 DUP5 ADD MLOAD DUP5 MLOAD DUP5 PUSH2 0xB26 JUMP JUMPDEST PUSH2 0x1C0 DUP2 ADD PUSH1 0x40 DUP3 ADD MLOAD PUSH1 0x40 MLOAD PUSH2 0x100 DUP2 ADD PUSH1 0x40 MSTORE PUSH2 0xBCF PUSH32 0x776C84F3C48B02E5CAD70CF1B5E23F1199623A48B20B59B335D89821B5FFAD5 PUSH32 0x20F2B57CDEA69AC45E1D6EEB758BDC93807997612CBBB9679470E0294FD3F58B DUP6 SWAP1 DUP2 MSTORE PUSH1 0x20 ADD MSTORE JUMP JUMPDEST PUSH2 0xC32 PUSH1 0x0 DUP1 MLOAD PUSH1 0x20 PUSH2 0x158B DUP4 CODECOPY DUP2 MLOAD SWAP2 MSTORE PUSH2 0x264 CALLDATALOAD PUSH2 0x244 CALLDATALOAD MULMOD PUSH32 0x8E550202BDAD1030B43F40B92AE769ACA8CA9284F122E0B0A4DF8FBE4A29CF4 PUSH32 0xD07F257198A6FE68ACE4F381A159DAB13AA0AE1CBF6277DBBB838D866FB1122 DUP7 PUSH2 0xABB JUMP JUMPDEST PUSH2 0xC81 PUSH2 0x244 CALLDATALOAD PUSH32 0x6D606843C65A58EF6B623A6496FCA88C7033BA4025FB090E8C743EEC2D2CB9F PUSH32 0x305B375FB105D6947B4709C009E53FAA1F2B3F46E5EA7FC071D8B8769209D33B DUP7 PUSH2 0xABB JUMP JUMPDEST PUSH2 0xCD0 PUSH2 0x264 CALLDATALOAD PUSH32 0x108BBFC85B722CBB6B437964C3BCC326BEF7804E98AB65BEC5D73AEBB3DBF91C PUSH32 0x205DA991CA6EBBA85035755D47D0972EFD7D6B350F57EE0A0D5281B8B94A8554 DUP7 PUSH2 0xABB JUMP JUMPDEST PUSH2 0xD1F PUSH2 0x284 CALLDATALOAD PUSH32 0x8CA54D4CB572C821395A6C58104D7C2A81A9227E43133CEA5908801CD885475 PUSH32 0x15F4CA99DC32DA9AA8539941009EC10C2AB0BB08037F22615E28F32E2E7C1468 DUP7 PUSH2 0xABB JUMP JUMPDEST PUSH1 0xA0 DUP5 ADD MLOAD PUSH1 0x0 DUP1 MLOAD PUSH1 0x20 PUSH2 0x158B DUP4 CODECOPY DUP2 MLOAD SWAP2 MSTORE DUP4 PUSH1 0x0 DUP1 MLOAD PUSH1 0x20 PUSH2 0x158B DUP4 CODECOPY DUP2 MLOAD SWAP2 MSTORE DUP4 PUSH2 0x244 CALLDATALOAD ADDMOD ADDMOD PUSH1 0x0 DUP1 MLOAD PUSH1 0x20 PUSH2 0x158B DUP4 CODECOPY DUP2 MLOAD SWAP2 MSTORE DUP5 PUSH1 0x0 DUP1 MLOAD PUSH1 0x20 PUSH2 0x158B DUP4 CODECOPY DUP2 MLOAD SWAP2 MSTORE DUP1 PUSH1 0x2 DUP7 MULMOD PUSH2 0x264 CALLDATALOAD ADDMOD ADDMOD PUSH1 0x0 DUP1 MLOAD PUSH1 0x20 PUSH2 0x158B DUP4 CODECOPY DUP2 MLOAD SWAP2 MSTORE DUP6 PUSH1 0x0 DUP1 MLOAD PUSH1 0x20 PUSH2 0x158B DUP4 CODECOPY DUP2 MLOAD SWAP2 MSTORE DUP1 PUSH1 0x3 DUP8 MULMOD PUSH2 0x284 CALLDATALOAD ADDMOD ADDMOD SWAP3 POP PUSH1 0x0 DUP1 MLOAD PUSH1 0x20 PUSH2 0x158B DUP4 CODECOPY DUP2 MLOAD SWAP2 MSTORE PUSH1 0x0 DUP9 ADD MLOAD PUSH1 0x0 DUP1 MLOAD PUSH1 0x20 PUSH2 0x158B DUP4 CODECOPY DUP2 MLOAD SWAP2 MSTORE DUP6 PUSH1 0x0 DUP1 MLOAD PUSH1 0x20 PUSH2 0x158B DUP4 CODECOPY DUP2 MLOAD SWAP2 MSTORE DUP6 DUP8 MULMOD MULMOD MULMOD PUSH1 0x0 DUP1 MLOAD PUSH1 0x20 PUSH2 0x158B DUP4 CODECOPY DUP2 MLOAD SWAP2 MSTORE PUSH2 0x2C0 DUP10 ADD MLOAD PUSH2 0x320 DUP11 ADD MLOAD MULMOD PUSH1 0xC4 CALLDATALOAD PUSH1 0xC0 DUP8 ADD MSTORE PUSH1 0xE4 CALLDATALOAD PUSH1 0xE0 DUP8 ADD MSTORE PUSH2 0xE39 PUSH1 0x0 DUP1 MLOAD PUSH1 0x20 PUSH2 0x158B DUP4 CODECOPY DUP2 MLOAD SWAP2 MSTORE PUSH2 0x160 DUP12 ADD MLOAD PUSH1 0x0 DUP1 MLOAD PUSH1 0x20 PUSH2 0x158B DUP4 CODECOPY DUP2 MLOAD SWAP2 MSTORE DUP5 DUP7 ADDMOD ADDMOD PUSH1 0xC0 DUP9 ADD DUP9 PUSH2 0xB5A JUMP JUMPDEST POP POP PUSH1 0x0 DUP1 MLOAD PUSH1 0x20 PUSH2 0x158B DUP4 CODECOPY DUP2 MLOAD SWAP2 MSTORE DUP6 PUSH1 0x0 DUP1 MLOAD PUSH1 0x20 PUSH2 0x158B DUP4 CODECOPY DUP2 MLOAD SWAP2 MSTORE DUP1 PUSH2 0x2A4 CALLDATALOAD PUSH1 0x20 DUP13 ADD MLOAD MULMOD PUSH2 0x244 CALLDATALOAD ADDMOD ADDMOD SWAP2 POP PUSH1 0x0 DUP1 MLOAD PUSH1 0x20 PUSH2 0x158B DUP4 CODECOPY DUP2 MLOAD SWAP2 MSTORE DUP6 PUSH1 0x0 DUP1 MLOAD PUSH1 0x20 PUSH2 0x158B DUP4 CODECOPY DUP2 MLOAD SWAP2 MSTORE DUP1 PUSH2 0x2C4 CALLDATALOAD PUSH1 0x20 DUP13 ADD MLOAD MULMOD PUSH2 0x264 CALLDATALOAD ADDMOD ADDMOD SWAP1 POP PUSH1 0x0 DUP1 MLOAD PUSH1 0x20 PUSH2 0x158B DUP4 CODECOPY DUP2 MLOAD SWAP2 MSTORE PUSH2 0x2E4 CALLDATALOAD PUSH1 0x0 DUP1 MLOAD PUSH1 0x20 PUSH2 0x158B DUP4 CODECOPY DUP2 MLOAD SWAP2 MSTORE PUSH1 0x20 DUP11 ADD MLOAD PUSH1 0x0 DUP12 ADD MLOAD MULMOD MULMOD SWAP3 POP PUSH2 0xF40 PUSH1 0x0 DUP1 MLOAD PUSH1 0x20 PUSH2 0x158B DUP4 CODECOPY DUP2 MLOAD SWAP2 MSTORE DUP5 PUSH1 0x0 DUP1 MLOAD PUSH1 0x20 PUSH2 0x158B DUP4 CODECOPY DUP2 MLOAD SWAP2 MSTORE DUP5 DUP7 MULMOD MULMOD PUSH32 0x137F8EBE77615BD5DB4C3E83B8D81597C606179876397C65EFC98163125F0900 PUSH32 0x27102CBB57FEABF416A75B0171655915D270AB8459F74B9F20D6053C102D8047 PUSH1 0x40 DUP9 ADD PUSH2 0xB26 JUMP JUMPDEST POP POP POP PUSH2 0x104 CALLDATALOAD PUSH1 0x80 DUP3 ADD MSTORE PUSH2 0x124 CALLDATALOAD PUSH1 0xA0 DUP3 ADD MSTORE PUSH2 0xF71 PUSH1 0x80 DUP6 ADD MLOAD PUSH1 0x20 PUSH2 0x144 ADD CALLDATALOAD PUSH2 0x144 CALLDATALOAD PUSH1 0x80 DUP6 ADD PUSH2 0xABB JUMP JUMPDEST PUSH1 0x80 DUP5 ADD MLOAD PUSH1 0x0 DUP1 MLOAD PUSH1 0x20 PUSH2 0x158B DUP4 CODECOPY DUP2 MLOAD SWAP2 MSTORE SWAP1 DUP1 MULMOD SWAP2 POP PUSH2 0xF9F DUP3 PUSH2 0x1A4 CALLDATALOAD PUSH2 0x184 CALLDATALOAD PUSH1 0x80 DUP6 ADD PUSH2 0xABB JUMP JUMPDEST PUSH2 0xFBB PUSH2 0x2E0 DUP6 ADD MLOAD PUSH1 0xA0 DUP4 ADD MLOAD PUSH1 0x80 DUP5 ADD MLOAD PUSH1 0x80 DUP6 ADD PUSH2 0xB26 JUMP JUMPDEST PUSH1 0x0 DUP1 MLOAD PUSH1 0x20 PUSH2 0x156B DUP4 CODECOPY DUP2 MLOAD SWAP2 MSTORE PUSH1 0x20 PUSH1 0x40 DUP4 ADD ADD MLOAD PUSH1 0x0 DUP1 MLOAD PUSH1 0x20 PUSH2 0x156B DUP4 CODECOPY DUP2 MLOAD SWAP2 MSTORE SUB MOD PUSH1 0x20 PUSH1 0x40 DUP4 ADD ADD MSTORE PUSH1 0x0 DUP1 MLOAD PUSH1 0x20 PUSH2 0x156B DUP4 CODECOPY DUP2 MLOAD SWAP2 MSTORE PUSH1 0xA0 DUP3 ADD MLOAD PUSH1 0x0 DUP1 MLOAD PUSH1 0x20 PUSH2 0x156B DUP4 CODECOPY DUP2 MLOAD SWAP2 MSTORE SUB MOD PUSH1 0xA0 DUP3 ADD MSTORE PUSH2 0x101F DUP2 DUP5 PUSH2 0xA6F JUMP JUMPDEST PUSH2 0x102C PUSH1 0x40 DUP3 ADD DUP5 PUSH2 0xA6F JUMP JUMPDEST PUSH2 0xAB5 PUSH1 0x80 DUP3 ADD DUP5 PUSH2 0xA6F JUMP JUMPDEST PUSH2 0x1C0 DUP2 ADD MLOAD PUSH2 0x200 DUP3 ADD SWAP1 DUP2 MSTORE PUSH2 0x1E0 DUP3 ADD MLOAD PUSH2 0x220 DUP4 ADD MSTORE PUSH1 0xC0 DUP3 ADD MLOAD PUSH2 0x1068 SWAP1 PUSH1 0x24 CALLDATALOAD PUSH1 0x4 CALLDATALOAD DUP5 PUSH2 0xABB JUMP JUMPDEST PUSH1 0xE0 DUP3 ADD MLOAD PUSH2 0x107D SWAP1 PUSH1 0x64 CALLDATALOAD PUSH1 0x44 CALLDATALOAD DUP5 PUSH2 0xABB JUMP JUMPDEST PUSH2 0x100 DUP3 ADD MLOAD PUSH2 0x1093 SWAP1 PUSH1 0xA4 CALLDATALOAD PUSH1 0x84 CALLDATALOAD DUP5 PUSH2 0xABB JUMP JUMPDEST PUSH2 0x10E4 PUSH2 0x120 DUP4 ADD MLOAD PUSH32 0xDEF717D0C773B5A527A6CE2F07EFD138BB145CCECBE4565622FFDD2112FE8FD PUSH32 0xDC047C2A4CEAAB0BB2CAA4950F0CC59ED1A58F662BDE1E5E04FE7B2327DB8F7 DUP5 PUSH2 0xABB JUMP JUMPDEST PUSH2 0x1135 PUSH2 0x140 DUP4 ADD MLOAD PUSH32 0x173A3D4D26C247C409C8177C59D625418D986791D982A31517DB6318F853CC7A PUSH32 0x1AF3941ECA3DE3404D2077652186A11867646FE7AA20BBE1F8B5D359BC30A2E7 DUP5 PUSH2 0xABB JUMP JUMPDEST POP POP JUMP JUMPDEST PUSH1 0x0 DUP1 MLOAD PUSH1 0x20 PUSH2 0x158B DUP4 CODECOPY DUP2 MLOAD SWAP2 MSTORE PUSH2 0x1A0 DUP3 ADD MLOAD PUSH1 0x0 DUP1 MLOAD PUSH1 0x20 PUSH2 0x158B DUP4 CODECOPY DUP2 MLOAD SWAP2 MSTORE SUB MOD PUSH1 0x0 DUP1 MLOAD PUSH1 0x20 PUSH2 0x158B DUP4 CODECOPY DUP2 MLOAD SWAP2 MSTORE DUP1 PUSH1 0xC0 DUP5 ADD MLOAD PUSH2 0x244 CALLDATALOAD MULMOD DUP3 ADDMOD SWAP1 POP PUSH1 0x0 DUP1 MLOAD PUSH1 0x20 PUSH2 0x158B DUP4 CODECOPY DUP2 MLOAD SWAP2 MSTORE DUP1 PUSH1 0xE0 DUP5 ADD MLOAD PUSH2 0x264 CALLDATALOAD MULMOD DUP3 ADDMOD SWAP1 POP PUSH1 0x0 DUP1 MLOAD PUSH1 0x20 PUSH2 0x158B DUP4 CODECOPY DUP2 MLOAD SWAP2 MSTORE DUP1 PUSH2 0x100 DUP5 ADD MLOAD PUSH2 0x284 CALLDATALOAD MULMOD DUP3 ADDMOD SWAP1 POP PUSH1 0x0 DUP1 MLOAD PUSH1 0x20 PUSH2 0x158B DUP4 CODECOPY DUP2 MLOAD SWAP2 MSTORE DUP1 PUSH2 0x120 DUP5 ADD MLOAD PUSH2 0x2A4 CALLDATALOAD MULMOD DUP3 ADDMOD SWAP1 POP PUSH1 0x0 DUP1 MLOAD PUSH1 0x20 PUSH2 0x158B DUP4 CODECOPY DUP2 MLOAD SWAP2 MSTORE DUP1 PUSH2 0x140 DUP5 ADD MLOAD PUSH2 0x2C4 CALLDATALOAD MULMOD DUP3 ADDMOD SWAP1 POP PUSH1 0x0 DUP1 MLOAD PUSH1 0x20 PUSH2 0x158B DUP4 CODECOPY DUP2 MLOAD SWAP2 MSTORE DUP1 PUSH2 0x160 DUP5 ADD MLOAD PUSH2 0x2E4 CALLDATALOAD MULMOD DUP3 ADDMOD SWAP1 POP PUSH2 0x1135 DUP2 PUSH1 0x2 PUSH1 0x1 PUSH2 0x240 DUP7 ADD PUSH2 0xB26 JUMP JUMPDEST PUSH1 0x0 PUSH1 0x40 MLOAD PUSH2 0x240 DUP2 ADD PUSH1 0x40 MSTORE PUSH2 0x180 DUP2 ADD PUSH2 0x1C0 DUP3 ADD PUSH2 0x200 DUP4 ADD PUSH2 0x125B PUSH2 0x1C4 DUP5 DUP2 CALLDATALOAD DUP2 MSTORE PUSH1 0x20 SWAP2 DUP3 ADD CALLDATALOAD SWAP2 ADD MSTORE JUMP JUMPDEST PUSH2 0x204 CALLDATALOAD DUP3 MSTORE PUSH2 0x224 CALLDATALOAD PUSH1 0x20 DUP4 ADD MSTORE PUSH2 0x127A PUSH2 0x160 DUP8 ADD MLOAD DUP4 DUP7 PUSH2 0xB5A JUMP JUMPDEST PUSH2 0x1284 DUP4 DUP6 PUSH2 0xA6F JUMP JUMPDEST PUSH1 0x0 DUP1 MLOAD PUSH1 0x20 PUSH2 0x156B DUP4 CODECOPY DUP2 MLOAD SWAP2 MSTORE PUSH1 0x20 DUP6 ADD MLOAD PUSH1 0x0 DUP1 MLOAD PUSH1 0x20 PUSH2 0x156B DUP4 CODECOPY DUP2 MLOAD SWAP2 MSTORE SUB MOD PUSH1 0x20 DUP6 ADD MSTORE PUSH32 0x26186A2D65EE4D2F9C9A5B91F86597D35F192CD120CAF7E935D8443D1938E23D PUSH1 0x40 DUP6 ADD MSTORE PUSH32 0x30441FD1B5D3370482C42152A8899027716989A6996C2535BC9F7FEE8AAEF79E PUSH1 0x60 DUP6 ADD MSTORE PUSH32 0x1970EA81DD6992ADFBC571EFFB03503ADBBB6A857F578403C6C40E22D65B3C02 PUSH1 0x80 DUP6 ADD MSTORE PUSH32 0x54793348F12C0CF5622C340573CB277586319DE359AB9389778F689786B1E48 PUSH1 0xA0 DUP6 ADD MSTORE PUSH2 0x1358 PUSH1 0x60 DUP8 ADD MLOAD DUP5 PUSH1 0xC0 DUP8 ADD PUSH2 0xB5A JUMP JUMPDEST PUSH1 0x0 DUP1 MLOAD PUSH1 0x20 PUSH2 0x158B DUP4 CODECOPY DUP2 MLOAD SWAP2 MSTORE PUSH1 0x60 DUP8 ADD MLOAD PUSH2 0x160 DUP9 ADD MLOAD MULMOD SWAP3 POP PUSH1 0x0 DUP1 MLOAD PUSH1 0x20 PUSH2 0x158B DUP4 CODECOPY DUP2 MLOAD SWAP2 MSTORE PUSH32 0x931D596DE2FD10F01DDD073FD5A90A976F169C76F039BB91C4775720042D43A DUP5 MULMOD SWAP3 POP PUSH2 0x13B4 DUP4 DUP4 DUP4 PUSH2 0xB5A JUMP JUMPDEST PUSH2 0x13C1 DUP2 PUSH1 0xC0 DUP7 ADD PUSH2 0xA6F JUMP JUMPDEST POP POP POP PUSH2 0x13D5 PUSH2 0x200 DUP5 ADD PUSH1 0xC0 DUP4 ADD PUSH2 0xA6F JUMP JUMPDEST PUSH2 0x260 DUP4 ADD DUP1 MLOAD PUSH1 0x0 DUP1 MLOAD PUSH1 0x20 PUSH2 0x156B DUP4 CODECOPY DUP2 MLOAD SWAP2 MSTORE SWAP1 DUP2 SUB MOD SWAP1 MSTORE PUSH2 0x1402 PUSH2 0x240 DUP5 ADD PUSH1 0xC0 DUP4 ADD PUSH2 0xA6F JUMP JUMPDEST PUSH32 0x198E9393920D483A7260BFB731FB5D25F1AA493335A9E71297E485B7AEF312C2 PUSH2 0x100 DUP3 ADD MSTORE PUSH32 0x1800DEEF121F1E76426A00665E5C4479674322D4F75EDADD46DEBD5CD992F6ED PUSH2 0x120 DUP3 ADD MSTORE PUSH32 0x90689D0585FF075EC9E99AD690C3395BC4B313370B38EF355ACDADCD122975B PUSH2 0x140 DUP3 ADD MSTORE PUSH32 0x12C85EA5DB8C6DEB4AAB71808DCB408FE3D1E7690C43D37B4CE6CC0166FA7DAA PUSH2 0x160 DUP3 ADD MSTORE PUSH1 0x20 DUP2 PUSH2 0x180 DUP4 PUSH1 0x8 PUSH2 0x7D0 GAS SUB STATICCALL SWAP1 MLOAD AND SWAP3 SWAP2 POP POP JUMP JUMPDEST PUSH1 0x40 MLOAD PUSH2 0x360 DUP2 ADD PUSH1 0x40 MSTORE PUSH2 0x14C9 PUSH2 0x192 JUMP JUMPDEST PUSH2 0x14D3 DUP4 DUP3 PUSH2 0x1DC JUMP JUMPDEST PUSH2 0x14DC DUP2 PUSH2 0x77E JUMP JUMPDEST PUSH2 0x14E6 DUP4 DUP3 PUSH2 0x8A7 JUMP JUMPDEST PUSH2 0x14EF DUP2 PUSH2 0x917 JUMP JUMPDEST PUSH2 0x14F8 DUP2 PUSH2 0xB6B JUMP JUMPDEST PUSH2 0x1501 DUP2 PUSH2 0x1039 JUMP JUMPDEST PUSH2 0x150A DUP2 PUSH2 0x1139 JUMP JUMPDEST PUSH2 0x1513 DUP2 PUSH2 0x1229 JUMP JUMPDEST PUSH2 0x360 DUP3 SUB PUSH1 0x40 MSTORE DUP1 PUSH1 0x0 MSTORE PUSH1 0x20 PUSH1 0x0 RETURN JUMPDEST PUSH1 0x0 DUP1 PUSH2 0x340 DUP1 DUP5 DUP7 SUB SLT ISZERO PUSH2 0x153A JUMPI PUSH1 0x0 DUP1 REVERT JUMPDEST PUSH2 0x300 DUP5 ADD DUP6 DUP2 GT ISZERO PUSH2 0x154C JUMPI PUSH1 0x0 DUP1 REVERT JUMPDEST DUP5 SWAP4 POP DUP6 DUP3 DUP7 ADD GT ISZERO PUSH2 0x155E JUMPI PUSH1 0x0 DUP1 REVERT JUMPDEST DUP1 SWAP3 POP POP POP SWAP3 POP SWAP3 SWAP1 POP JUMP INVALID ADDRESS PUSH5 0x4E72E131A0 0x29 0xB8 POP GASLIMIT 0xB6 DUP2 DUP2 PC 0x5D SWAP8 DUP2 PUSH11 0x916871CA8D3C208C16D87C REVERT SELFBALANCE ADDRESS PUSH5 0x4E72E131A0 0x29 0xB8 POP GASLIMIT 0xB6 DUP2 DUP2 PC 0x5D 0x28 CALLER 0xE8 BASEFEE PUSH26 0xB9709143E1F593F0000001A2646970667358221220F86BA9E8A1 PUSH15 0x7987D41C19586D8DC9AB94AC031D5C DUP13 ADDMOD EXTCODEHASH 0xCD 0xD9 PUSH30 0xDFC459865F64736F6C634300081400330000000000000000000000000000 "},"methodIdentifiers":{"verifyProof(uint256[24],uint256[2])":"c0e9d81c"}}}}}