{
  "_format": "hh-sol-artifact-1",
  "contractName": "COLDprotocol",
  "sourceName": "contracts/COLDprotocol.sol",
  "abi": [
    {
      "inputs": [
        {
          "internalType": "address",
          "name": "_heatTokenAddress",
          "type": "address"
        },
        {
          "internalType": "address",
          "name": "_oTokenAddress",
          "type": "address"
        },
        {
          "internalType": "address",
          "name": "_treasuryAddress",
          "type": "address"
        },
        {
          "internalType": "address",
          "name": "_verifierAddress",
          "type": "address"
        }
      ],
      "stateMutability": "nonpayable",
      "type": "constructor"
    },
    {
      "inputs": [
        {
          "internalType": "address",
          "name": "owner",
          "type": "address"
        }
      ],
      "name": "OwnableInvalidOwner",
      "type": "error"
    },
    {
      "inputs": [
        {
          "internalType": "address",
          "name": "account",
          "type": "address"
        }
      ],
      "name": "OwnableUnauthorizedAccount",
      "type": "error"
    },
    {
      "anonymous": false,
      "inputs": [
        {
          "indexed": true,
          "internalType": "address",
          "name": "previousOwner",
          "type": "address"
        },
        {
          "indexed": true,
          "internalType": "address",
          "name": "newOwner",
          "type": "address"
        }
      ],
      "name": "OwnershipTransferred",
      "type": "event"
    },
    {
      "anonymous": false,
      "inputs": [
        {
          "indexed": true,
          "internalType": "address",
          "name": "recipient",
          "type": "address"
        },
        {
          "indexed": false,
          "internalType": "uint256",
          "name": "heatAmount",
          "type": "uint256"
        },
        {
          "indexed": false,
          "internalType": "uint256",
          "name": "oAmount",
          "type": "uint256"
        }
      ],
      "name": "RewardClaimed",
      "type": "event"
    },
    {
      "anonymous": false,
      "inputs": [
        {
          "indexed": true,
          "internalType": "address",
          "name": "newTreasury",
          "type": "address"
        }
      ],
      "name": "TreasuryAddressUpdated",
      "type": "event"
    },
    {
      "anonymous": false,
      "inputs": [
        {
          "indexed": false,
          "internalType": "uint256",
          "name": "newFeeBps",
          "type": "uint256"
        }
      ],
      "name": "TreasuryFeeUpdated",
      "type": "event"
    },
    {
      "inputs": [
        {
          "internalType": "address",
          "name": "",
          "type": "address"
        }
      ],
      "name": "hasClaimed",
      "outputs": [
        {
          "internalType": "bool",
          "name": "",
          "type": "bool"
        }
      ],
      "stateMutability": "view",
      "type": "function"
    },
    {
      "inputs": [],
      "name": "heatRewardAmount",
      "outputs": [
        {
          "internalType": "uint256",
          "name": "",
          "type": "uint256"
        }
      ],
      "stateMutability": "view",
      "type": "function"
    },
    {
      "inputs": [],
      "name": "heatToken",
      "outputs": [
        {
          "internalType": "contract EmbersToken",
          "name": "",
          "type": "address"
        }
      ],
      "stateMutability": "view",
      "type": "function"
    },
    {
      "inputs": [],
      "name": "oRewardAmount",
      "outputs": [
        {
          "internalType": "uint256",
          "name": "",
          "type": "uint256"
        }
      ],
      "stateMutability": "view",
      "type": "function"
    },
    {
      "inputs": [],
      "name": "oToken",
      "outputs": [
        {
          "internalType": "contract COLDtoken",
          "name": "",
          "type": "address"
        }
      ],
      "stateMutability": "view",
      "type": "function"
    },
    {
      "inputs": [],
      "name": "owner",
      "outputs": [
        {
          "internalType": "address",
          "name": "",
          "type": "address"
        }
      ],
      "stateMutability": "view",
      "type": "function"
    },
    {
      "inputs": [],
      "name": "renounceOwnership",
      "outputs": [],
      "stateMutability": "nonpayable",
      "type": "function"
    },
    {
      "inputs": [
        {
          "internalType": "address",
          "name": "_newTreasury",
          "type": "address"
        }
      ],
      "name": "setTreasuryAddress",
      "outputs": [],
      "stateMutability": "nonpayable",
      "type": "function"
    },
    {
      "inputs": [
        {
          "internalType": "uint256",
          "name": "_newFeeBps",
          "type": "uint256"
        }
      ],
      "name": "setTreasuryFee",
      "outputs": [],
      "stateMutability": "nonpayable",
      "type": "function"
    },
    {
      "inputs": [
        {
          "internalType": "address",
          "name": "newOwner",
          "type": "address"
        }
      ],
      "name": "transferOwnership",
      "outputs": [],
      "stateMutability": "nonpayable",
      "type": "function"
    },
    {
      "inputs": [],
      "name": "treasuryAddress",
      "outputs": [
        {
          "internalType": "address",
          "name": "",
          "type": "address"
        }
      ],
      "stateMutability": "view",
      "type": "function"
    },
    {
      "inputs": [],
      "name": "treasuryFeeBps",
      "outputs": [
        {
          "internalType": "uint256",
          "name": "",
          "type": "uint256"
        }
      ],
      "stateMutability": "view",
      "type": "function"
    },
    {
      "inputs": [],
      "name": "verifier",
      "outputs": [
        {
          "internalType": "contract IVerifier",
          "name": "",
          "type": "address"
        }
      ],
      "stateMutability": "view",
      "type": "function"
    },
    {
      "inputs": [
        {
          "internalType": "address",
          "name": "_recipient",
          "type": "address"
        },
        {
          "internalType": "bytes",
          "name": "_proof",
          "type": "bytes"
        },
        {
          "internalType": "uint256[]",
          "name": "_pubSignals",
          "type": "uint256[]"
        }
      ],
      "name": "verifyAndDistribute",
      "outputs": [],
      "stateMutability": "nonpayable",
      "type": "function"
    }
  ],
  "bytecode": "0x60e060405234801561001057600080fd5b50604051610f00380380610f0083398101604081905261002f91610105565b338061005557604051631e4fbdf760e01b81526000600482015260240160405180910390fd5b61005e81610099565b506001600160a01b0393841660805291831660a052600180546001600160a01b0319169184169190911790556103206002551660c052610159565b600080546001600160a01b038381166001600160a01b0319831681178455604051919092169283917f8be0079c531659141344cd1fd0a4f28419497f9722a3daafe3b4186f6b6457e09190a35050565b80516001600160a01b038116811461010057600080fd5b919050565b6000806000806080858703121561011b57600080fd5b610124856100e9565b9350610132602086016100e9565b9250610140604086016100e9565b915061014e606086016100e9565b905092959194509250565b60805160a05160c051610d486101b86000396000818161015601526104c501526000818160f4015281816107e80152818161085701526109310152600081816101f1015281816105e00152818161064f015261072b0152610d486000f3fe608060405234801561001057600080fd5b50600436106100ea5760003560e01c80638da5cb5b1161008c578063c5f956af11610066578063c5f956af14610222578063dbbb7a5614610235578063e80cfa5e14610248578063f2fde38b1461025157600080fd5b80638da5cb5b146101db578063ae428d78146101ec578063c220cbc41461021357600080fd5b80636605bfda116100c85780636605bfda14610178578063715018a61461018d57806373b2e80e1461019557806377e741c7146101c857600080fd5b80631a32aad6146100ef57806328a1a25d146101335780632b7ac3f314610151575b600080fd5b6101167f000000000000000000000000000000000000000000000000000000000000000081565b6040516001600160a01b0390911681526020015b60405180910390f35b61014368056bc75e2d6310000081565b60405190815260200161012a565b6101167f000000000000000000000000000000000000000000000000000000000000000081565b61018b610186366004610af7565b610264565b005b61018b6102b6565b6101b86101a3366004610af7565b60036020526000908152604090205460ff1681565b604051901515815260200161012a565b61018b6101d6366004610b19565b6102ca565b6000546001600160a01b0316610116565b6101167f000000000000000000000000000000000000000000000000000000000000000081565b610143670de0b6b3a764000081565b600154610116906001600160a01b031681565b61018b610243366004610b32565b610370565b61014360025481565b61018b61025f366004610af7565b610a20565b61026c610a5e565b600180546001600160a01b0319166001600160a01b0383169081179091556040517fb6a5e89655cf506139085f051af608195ed056f8dc550b180a1c38d401e2b6c490600090a250565b6102be610a5e565b6102c86000610a8b565b565b6102d2610a5e565b6103e88111156103355760405162461bcd60e51b8152602060048201526024808201527f434f4c4470726f746f636f6c3a204665652063616e6e6f7420657863656564206044820152631898129760e11b60648201526084015b60405180910390fd5b60028190556040518181527ffdc6c17f190a1a7e236af2f7387d9494b31405f8f9fad26e36a7fefe7190cef89060200160405180910390a150565b6001600160a01b03851660009081526003602052604090205460ff16156103ee5760405162461bcd60e51b815260206004820152602c60248201527f434f4c4470726f746f636f6c3a20526563697069656e742068617320616c726560448201526b30b23c9031b630b4b6b2b21760a11b606482015260840161032c565b6040516bffffffffffffffffffffffff19606087901b1660208201526034016040516020818303038152906040528051906020012060001c8282600181811061043957610439610c0e565b90506020020135146104ab5760405162461bcd60e51b815260206004820152603560248201527f434f4c4470726f746f636f6c3a205075626c6963207369676e616c20646f6573604482015274103737ba1036b0ba31b4103932b1b4b834b2b73a1760591b606482015260840161032c565b604051631e8e1e1360e01b81526000906001600160a01b037f00000000000000000000000000000000000000000000000000000000000000001690631e8e1e1390610500908890889088908890600401610c24565b602060405180830381865afa15801561051d573d6000803e3d6000fd5b505050506040513d601f19601f820116820180604052508101906105419190610c88565b9050806105905760405162461bcd60e51b815260206004820152601c60248201527f434f4c4470726f746f636f6c3a20496e76616c69642070726f6f662e00000000604482015260640161032c565b60006002546127106105a29190610cc0565b6105b768056bc75e2d63100000612710610cd9565b6105c19190610cf0565b6040516340c10f1960e01b8152306004820152602481018290529091507f00000000000000000000000000000000000000000000000000000000000000006001600160a01b0316906340c10f1990604401600060405180830381600087803b15801561062c57600080fd5b505af1158015610640573d6000803e3d6000fd5b50506001546001600160a01b037f00000000000000000000000000000000000000000000000000000000000000008116935063a9059cbb92501661068d68056bc75e2d6310000085610cc0565b6040516001600160e01b031960e085901b1681526001600160a01b03909216600483015260248201526044016020604051808303816000875af11580156106d8573d6000803e3d6000fd5b505050506040513d601f19601f820116820180604052508101906106fc9190610c88565b5060405163a9059cbb60e01b81526001600160a01b03888116600483015268056bc75e2d6310000060248301527f0000000000000000000000000000000000000000000000000000000000000000169063a9059cbb906044016020604051808303816000875af1158015610774573d6000803e3d6000fd5b505050506040513d601f19601f820116820180604052508101906107989190610c88565b5060006002546127106107ab9190610cc0565b6107bf670de0b6b3a7640000612710610cd9565b6107c99190610cf0565b6040516340c10f1960e01b8152306004820152602481018290529091507f00000000000000000000000000000000000000000000000000000000000000006001600160a01b0316906340c10f1990604401600060405180830381600087803b15801561083457600080fd5b505af1158015610848573d6000803e3d6000fd5b50506001546001600160a01b037f00000000000000000000000000000000000000000000000000000000000000008116935063a9059cbb925016610894670de0b6b3a764000085610cc0565b6040516001600160e01b031960e085901b1681526001600160a01b03909216600483015260248201526044016020604051808303816000875af11580156108df573d6000803e3d6000fd5b505050506040513d601f19601f820116820180604052508101906109039190610c88565b5060405163a9059cbb60e01b81526001600160a01b038981166004830152670de0b6b3a764000060248301527f0000000000000000000000000000000000000000000000000000000000000000169063a9059cbb906044016020604051808303816000875af115801561097a573d6000803e3d6000fd5b505050506040513d601f19601f8201168201806040525081019061099e9190610c88565b506001600160a01b03881660008181526003602052604090819020805460ff19166001179055517ff01da32686223933d8a18a391060918c7f11a3648639edd87ae013e2e273174390610a0e9068056bc75e2d6310000090670de0b6b3a764000090918252602082015260400190565b60405180910390a25050505050505050565b610a28610a5e565b6001600160a01b038116610a5257604051631e4fbdf760e01b81526000600482015260240161032c565b610a5b81610a8b565b50565b6000546001600160a01b031633146102c85760405163118cdaa760e01b815233600482015260240161032c565b600080546001600160a01b038381166001600160a01b0319831681178455604051919092169283917f8be0079c531659141344cd1fd0a4f28419497f9722a3daafe3b4186f6b6457e09190a35050565b80356001600160a01b0381168114610af257600080fd5b919050565b600060208284031215610b0957600080fd5b610b1282610adb565b9392505050565b600060208284031215610b2b57600080fd5b5035919050565b600080600080600060608688031215610b4a57600080fd5b610b5386610adb565b9450602086013567ffffffffffffffff80821115610b7057600080fd5b818801915088601f830112610b8457600080fd5b813581811115610b9357600080fd5b896020828501011115610ba557600080fd5b602083019650809550506040880135915080821115610bc357600080fd5b818801915088601f830112610bd757600080fd5b813581811115610be657600080fd5b8960208260051b8501011115610bfb57600080fd5b9699959850939650602001949392505050565b634e487b7160e01b600052603260045260246000fd5b6040815283604082015283856060830137600060608583018101829052601f19601f8701168301838103820160208501529081018490526001600160fb1b03841115610c6f57600080fd5b8360051b80866080840137016080019695505050505050565b600060208284031215610c9a57600080fd5b81518015158114610b1257600080fd5b634e487b7160e01b600052601160045260246000fd5b81810381811115610cd357610cd3610caa565b92915050565b8082028115828204841417610cd357610cd3610caa565b600082610d0d57634e487b7160e01b600052601260045260246000fd5b50049056fea2646970667358221220810ebe0d4ce77ae43a759213f8323d1de046bcd9fef9b2da6ce15164c409497a64736f6c63430008140033",
  "linkReferences": {},
  "deployedLinkReferences": {}
}