{
  "_format": "hh-sol-artifact-1",
  "contractName": "ProofVerifier",
  "sourceName": "contracts/ProofVerifier.sol",
  "abi": [
    {
      "inputs": [
        {
          "internalType": "address",
          "name": "_embersTokenAddress",
          "type": "address"
        }
      ],
      "stateMutability": "nonpayable",
      "type": "constructor"
    },
    {
      "anonymous": false,
      "inputs": [
        {
          "indexed": true,
          "internalType": "address",
          "name": "recipient",
          "type": "address"
        },
        {
          "indexed": false,
          "internalType": "uint256",
          "name": "amount",
          "type": "uint256"
        }
      ],
      "name": "Minted",
      "type": "event"
    },
    {
      "inputs": [],
      "name": "embersToken",
      "outputs": [
        {
          "internalType": "contract EmbersToken",
          "name": "",
          "type": "address"
        }
      ],
      "stateMutability": "view",
      "type": "function"
    },
    {
      "inputs": [
        {
          "internalType": "address",
          "name": "",
          "type": "address"
        }
      ],
      "name": "hasMinted",
      "outputs": [
        {
          "internalType": "bool",
          "name": "",
          "type": "bool"
        }
      ],
      "stateMutability": "view",
      "type": "function"
    },
    {
      "inputs": [
        {
          "internalType": "address",
          "name": "_recipient",
          "type": "address"
        },
        {
          "internalType": "uint256",
          "name": "_amount",
          "type": "uint256"
        },
        {
          "internalType": "bytes",
          "name": "_proof",
          "type": "bytes"
        }
      ],
      "name": "verifyAndMint",
      "outputs": [],
      "stateMutability": "nonpayable",
      "type": "function"
    }
  ],
  "bytecode": "0x608060405234801561001057600080fd5b506040516103ed3803806103ed83398101604081905261002f91610054565b600080546001600160a01b0319166001600160a01b0392909216919091179055610084565b60006020828403121561006657600080fd5b81516001600160a01b038116811461007d57600080fd5b9392505050565b61035a806100936000396000f3fe608060405234801561001057600080fd5b50600436106100415760003560e01c80631426dc021461004657806338e21cce1461005b5780638bd085d914610093575b600080fd5b61005961005436600461027b565b6100be565b005b61007e610069366004610302565b60016020526000908152604090205460ff1681565b60405190151581526020015b60405180910390f35b6000546100a6906001600160a01b031681565b6040516001600160a01b03909116815260200161008a565b6001600160a01b03841660009081526001602052604090205460ff16156101415760405162461bcd60e51b815260206004820152602c60248201527f50726f6f6656657269666965723a20526563697069656e742068617320616c7260448201526b32b0b23c9036b4b73a32b21760a11b60648201526084015b60405180910390fd5b801515806101915760405162461bcd60e51b815260206004820152601d60248201527f50726f6f6656657269666965723a20496e76616c69642070726f6f662e0000006044820152606401610138565b6001600160a01b038581166000818152600160208190526040808320805460ff1916909217909155905490516340c10f1960e01b8152600481019290925260248201879052909116906340c10f1990604401600060405180830381600087803b1580156101fd57600080fd5b505af1158015610211573d6000803e3d6000fd5b50505050846001600160a01b03167f30385c845b448a36257a6a1716e6ad2e1bc2cbe333cde1e69fe849ad6511adfe8560405161025091815260200190565b60405180910390a25050505050565b80356001600160a01b038116811461027657600080fd5b919050565b6000806000806060858703121561029157600080fd5b61029a8561025f565b935060208501359250604085013567ffffffffffffffff808211156102be57600080fd5b818701915087601f8301126102d257600080fd5b8135818111156102e157600080fd5b8860208285010111156102f357600080fd5b95989497505060200194505050565b60006020828403121561031457600080fd5b61031d8261025f565b939250505056fea264697066735822122003b736965ae46a9f9172e0e086d3d47c5a81d88ff69c4c18735ec583176673d164736f6c63430008140033",
  "linkReferences": {},
  "deployedLinkReferences": {}
}