{
  "_format": "hh-sol-artifact-1",
  "contractName": "PlonkVerifier",
  "sourceName": "contracts/Verifier.sol",
  "abi": [
    {
      "inputs": [
        {
          "internalType": "uint256[24]",
          "name": "_proof",
          "type": "uint256[24]"
        },
        {
          "internalType": "uint256[2]",
          "name": "_pubSignals",
          "type": "uint256[2]"
        }
      ],
      "name": "verifyProof",
      "outputs": [
        {
          "internalType": "bool",
          "name": "",
          "type": "bool"
        }
      ],
      "stateMutability": "view",
      "type": "function"
    }
  ],
  "bytecode": "0x608060405234801561001057600080fd5b506115e0806100206000396000f3fe608060405234801561001057600080fd5b506004361061002b5760003560e01c8063c0e9d81c14610030575b600080fd5b61004361003e366004611525565b610057565b604051901515815260200160405180910390f35b60006114b6565b600080600184846000805b821561008b575092938183058581029091039350909181830290039081610069565b505050600181111561009c57600080fd5b505060008112156100aa5783015b9392505050565b60405181602084028301815160208301925060005b828410156100f75781855260008051602061158b8339815191528451830991506020850194506020840193506100c6565b61010f60008051602061158b8339815191528361005e565b91506020850394506020840393508592505b828411156101665760008051602061158b83398151915285518309905060008051602061158b83398151915284518309818552601f1995860195909401939150610121565b5090915250505050565b60008051602061158b833981519152811061018f576000805260206000f35b50565b61019e61024435610170565b6101aa61026435610170565b6101b661028435610170565b6101c26102a435610170565b6101ce6102c435610170565b6101da6102e435610170565b565b604080517f0d07f257198a6fe68ace4f381a159dab13aa0ae1cbf6277dbbb838d866fb112281527f08e550202bdad1030b43f40b92ae769aca8ca9284f122e0b0a4df8fbe4a29cf460208083019182527f305b375fb105d6947b4709c009e53faa1f2b3f46e5ea7fc071d8b8769209d33b8385019081527f06d606843c65a58ef6b623a6496fca88c7033ba4025fb090e8c743eec2d2cb9f606085019081527f205da991ca6ebba85035755d47d0972efd7d6b350f57ee0a0d5281b8b94a85546080808701919091527f108bbfc85b722cbb6b437964c3bcc326bef7804e98ab65bec5d73aebb3dbf91c60a08701527f15f4ca99dc32da9aa8539941009ec10c2ab0bb08037f22615e28f32e2e7c146860c08701527f08ca54d4cb572c821395a6c58104d7c2a81a9227e43133cea5908801cd88547560e08701527f20f2b57cdea69ac45e1d6eeb758bdc93807997612cbbb9679470e0294fd3f58b6101008701527f0776c84f3c48b02e5cad70cf1b5e23f1199623a48b20b59b335d89821b5ffad56101208701527f0dc047c2a4ceaab0bb2caa4950f0cc59ed1a58f662bde1e5e04fe7b2327db8f76101408701527f0def717d0c773b5a527a6ce2f07efd138bb145ccecbe4565622ffdd2112fe8fd6101608701527f1af3941eca3de3404d2077652186a11867646fe7aa20bbe1f8b5d359bc30a2e76101808701527f173a3d4d26c247c409c8177c59d625418d986791d982a31517db6318f853cc7a6101a08701527f27102cbb57feabf416a75b0171655915d270ab8459f74b9f20d6053c102d80476101c08701527f137f8ebe77615bd5db4c3e83b8d81597c606179876397c65efc98163125f09006101e08701528835610200870152888401356102208701526004356102408701526024356102608701526044356102808701526064356102a08701526084356102c087015260a4356102e0870152610300862060008051602061158b8339815191529081900689860181815295909520819006978901978852848752965190945260c43590915260e435905290822083900680855290929091908280096102c08501528181526101043560208201526020610104013560408201526101443560608201526020610144013560808201526101843560a08201526020610184013560c082015260008051602061158b83398151915260e082200691508160608501528181526102443560208201526102643560408201526102843560608201526102a43560808201526102c43560a08201526102e43560c082015260008051602061158b83398151915260e08220068060c086015260008051602061158b83398151915283850960a086015260008051602061158b833981519152838409925060008051602061158b833981519152838409925060008051602061158b833981519152838409925060008051602061158b833981519152838409925060008051602061158b833981519152838409925060008051602061158b833981519152838409925060008051602061158b833981519152838409925060008051602061158b833981519152838409925060008051602061158b833981519152838409925060008051602061158b833981519152838409925060008051602061158b833981519152838409925060008051602061158b833981519152838409925082608086015260008051602061158b833981519152806001850301069250826102e08601528261030086015260008051602061158b83398151915281820992508260e086015260008051602061158b83398151915281840992508261010086015260008051602061158b83398151915281840992508261012086015260008051602061158b833981519152818409610140860152506101c43581526101e43560208201526102043560408201526102243560608201526080902060008051602061158b833981519152900661016090930192909252505050565b600160008051602061158b8339815191528060008051602061158b8339815191528360608601510301066110000961032083015260008051602061158b8339815191527f0931d596de2fd10f01ddd073fd5a90a976f169c76f039bb91c4775720042d43a8209905060008051602061158b8339815191528060008051602061158b83398151915283606086015103010661100009610340830152610827600361030084016100b1565b6102e08201516001915060008051602061158b833981519152816103208501510961032084015260008051602061158b8339815191527f0931d596de2fd10f01ddd073fd5a90a976f169c76f039bb91c4775720042d43a8309915060008051602061158b8339815191528082610340860151098309610340840152505050565b600060008051602061158b8339815191528060008051602061158b83398151915260008601356103208601510983030106905060008051602061158b8339815191528060008051602061158b83398151915260208601356103408601510983030106905080610180830152505050565b61018081015160008051602061158b8339815191526102c08301516103208401510960008051602061158b833981519152806102a435602086015109610244350860008051602061158b83398151915260408501518208905060008051602061158b833981519152806102c435602087015109610264350860008051602061158b83398151915260408601518208905060008051602061158b8339815191526040860151610284350860008051602061158b8339815191528160008051602061158b833981519152848609099250505060008051602061158b8339815191526102e4358209905060008051602061158b83398151915260008501518209905060008051602061158b833981519152808360008051602061158b83398151915203068408925060008051602061158b833981519152808260008051602061158b8339815191520306840892505050806101a08301525050565b6040518151815260208201516020820152825160408201526020830151606082015260408260808360066107d05a03fa905080610ab0576000805260206000f35b505050565b50505050565b600060405183815284602082015285604082015260408160608360076107d05a03fa915081610aee576000805260206000f35b825160408201526020830151606082015260408360808360066107d05a03fa91505080610b1f576000805260206000f35b5050505050565b600060405183815284602082015285604082015260408360608360076107d05a03fa91505080610b1f576000805260206000f35b610ab0836020840151845184610b26565b6101c0810160408201516040516101008101604052610bcf7f0776c84f3c48b02e5cad70cf1b5e23f1199623a48b20b59b335d89821b5ffad57f20f2b57cdea69ac45e1d6eeb758bdc93807997612cbbb9679470e0294fd3f58b8590815260200152565b610c3260008051602061158b8339815191526102643561024435097f08e550202bdad1030b43f40b92ae769aca8ca9284f122e0b0a4df8fbe4a29cf47f0d07f257198a6fe68ace4f381a159dab13aa0ae1cbf6277dbbb838d866fb112286610abb565b610c81610244357f06d606843c65a58ef6b623a6496fca88c7033ba4025fb090e8c743eec2d2cb9f7f305b375fb105d6947b4709c009e53faa1f2b3f46e5ea7fc071d8b8769209d33b86610abb565b610cd0610264357f108bbfc85b722cbb6b437964c3bcc326bef7804e98ab65bec5d73aebb3dbf91c7f205da991ca6ebba85035755d47d0972efd7d6b350f57ee0a0d5281b8b94a855486610abb565b610d1f610284357f08ca54d4cb572c821395a6c58104d7c2a81a9227e43133cea5908801cd8854757f15f4ca99dc32da9aa8539941009ec10c2ab0bb08037f22615e28f32e2e7c146886610abb565b60a084015160008051602061158b8339815191528360008051602061158b8339815191528361024435080860008051602061158b8339815191528460008051602061158b833981519152806002860961026435080860008051602061158b8339815191528560008051602061158b8339815191528060038709610284350808925060008051602061158b833981519152600088015160008051602061158b8339815191528560008051602061158b833981519152858709090960008051602061158b8339815191526102c08901516103208a01510960c43560c087015260e43560e0870152610e3960008051602061158b8339815191526101608b015160008051602061158b8339815191528486080860c0880188610b5a565b505060008051602061158b8339815191528560008051602061158b833981519152806102a43560208c015109610244350808915060008051602061158b8339815191528560008051602061158b833981519152806102c43560208c015109610264350808905060008051602061158b8339815191526102e43560008051602061158b83398151915260208a015160008b015109099250610f4060008051602061158b8339815191528460008051602061158b833981519152848609097f137f8ebe77615bd5db4c3e83b8d81597c606179876397c65efc98163125f09007f27102cbb57feabf416a75b0171655915d270ab8459f74b9f20d6053c102d804760408801610b26565b5050506101043560808201526101243560a0820152610f716080850151602061014401356101443560808501610abb565b608084015160008051602061158b8339815191529080099150610f9f826101a4356101843560808501610abb565b610fbb6102e085015160a0830151608084015160808501610b26565b60008051602061156b833981519152602060408301015160008051602061156b8339815191520306602060408301015260008051602061156b83398151915260a082015160008051602061156b833981519152030660a082015261101f8184610a6f565b61102c6040820184610a6f565b610ab56080820184610a6f565b6101c081015161020082019081526101e082015161022083015260c08201516110689060243560043584610abb565b60e082015161107d9060643560443584610abb565b6101008201516110939060a43560843584610abb565b6110e46101208301517f0def717d0c773b5a527a6ce2f07efd138bb145ccecbe4565622ffdd2112fe8fd7f0dc047c2a4ceaab0bb2caa4950f0cc59ed1a58f662bde1e5e04fe7b2327db8f784610abb565b6111356101408301517f173a3d4d26c247c409c8177c59d625418d986791d982a31517db6318f853cc7a7f1af3941eca3de3404d2077652186a11867646fe7aa20bbe1f8b5d359bc30a2e784610abb565b5050565b60008051602061158b8339815191526101a082015160008051602061158b833981519152030660008051602061158b8339815191528060c084015161024435098208905060008051602061158b8339815191528060e084015161026435098208905060008051602061158b8339815191528061010084015161028435098208905060008051602061158b833981519152806101208401516102a435098208905060008051602061158b833981519152806101408401516102c435098208905060008051602061158b833981519152806101608401516102e435098208905061113581600260016102408601610b26565b6000604051610240810160405261018081016101c08201610200830161125b6101c48481358152602091820135910152565b61020435825261022435602083015261127a6101608701518386610b5a565b6112848385610a6f565b60008051602061156b833981519152602085015160008051602061156b833981519152030660208501527f26186a2d65ee4d2f9c9a5b91f86597d35f192cd120caf7e935d8443d1938e23d60408501527f30441fd1b5d3370482c42152a8899027716989a6996c2535bc9f7fee8aaef79e60608501527f1970ea81dd6992adfbc571effb03503adbbb6a857f578403c6c40e22d65b3c0260808501527f054793348f12c0cf5622c340573cb277586319de359ab9389778f689786b1e4860a085015261135860608701518460c08701610b5a565b60008051602061158b833981519152606087015161016088015109925060008051602061158b8339815191527f0931d596de2fd10f01ddd073fd5a90a976f169c76f039bb91c4775720042d43a840992506113b4838383610b5a565b6113c18160c08601610a6f565b5050506113d5610200840160c08301610a6f565b6102608301805160008051602061156b833981519152908103069052611402610240840160c08301610a6f565b7f198e9393920d483a7260bfb731fb5d25f1aa493335a9e71297e485b7aef312c26101008201527f1800deef121f1e76426a00665e5c4479674322d4f75edadd46debd5cd992f6ed6101208201527f090689d0585ff075ec9e99ad690c3395bc4b313370b38ef355acdadcd122975b6101408201527f12c85ea5db8c6deb4aab71808dcb408fe3d1e7690c43d37b4ce6cc0166fa7daa6101608201526020816101808360086107d05a03fa90511692915050565b60405161036081016040526114c9610192565b6114d383826101dc565b6114dc8161077e565b6114e683826108a7565b6114ef81610917565b6114f881610b6b565b61150181611039565b61150a81611139565b61151381611229565b61036082036040528060005260206000f35b60008061034080848603121561153a57600080fd5b61030084018581111561154c57600080fd5b84935085828601111561155e57600080fd5b8092505050925092905056fe30644e72e131a029b85045b68181585d97816a916871ca8d3c208c16d87cfd4730644e72e131a029b85045b68181585d2833e84879b9709143e1f593f0000001a2646970667358221220f86ba9e8a16e7987d41c19586d8dc9ab94ac031d5c8c083fcdd97ddfc459865f64736f6c63430008140033",
  "linkReferences": {},
  "deployedLinkReferences": {}
}