{
  "_format": "hh-sol-artifact-1",
  "contractName": "EmbersToken",
  "sourceName": "contracts/EmbersToken.sol",
  "abi": [
    {
      "inputs": [
        {
          "internalType": "address",
          "name": "initialOwner",
          "type": "address"
        }
      ],
      "stateMutability": "nonpayable",
      "type": "constructor"
    },
    {
      "inputs": [
        {
          "internalType": "address",
          "name": "spender",
          "type": "address"
        },
        {
          "internalType": "uint256",
          "name": "allowance",
          "type": "uint256"
        },
        {
          "internalType": "uint256",
          "name": "needed",
          "type": "uint256"
        }
      ],
      "name": "ERC20InsufficientAllowance",
      "type": "error"
    },
    {
      "inputs": [
        {
          "internalType": "address",
          "name": "sender",
          "type": "address"
        },
        {
          "internalType": "uint256",
          "name": "balance",
          "type": "uint256"
        },
        {
          "internalType": "uint256",
          "name": "needed",
          "type": "uint256"
        }
      ],
      "name": "ERC20InsufficientBalance",
      "type": "error"
    },
    {
      "inputs": [
        {
          "internalType": "address",
          "name": "approver",
          "type": "address"
        }
      ],
      "name": "ERC20InvalidApprover",
      "type": "error"
    },
    {
      "inputs": [
        {
          "internalType": "address",
          "name": "receiver",
          "type": "address"
        }
      ],
      "name": "ERC20InvalidReceiver",
      "type": "error"
    },
    {
      "inputs": [
        {
          "internalType": "address",
          "name": "sender",
          "type": "address"
        }
      ],
      "name": "ERC20InvalidSender",
      "type": "error"
    },
    {
      "inputs": [
        {
          "internalType": "address",
          "name": "spender",
          "type": "address"
        }
      ],
      "name": "ERC20InvalidSpender",
      "type": "error"
    },
    {
      "inputs": [
        {
          "internalType": "address",
          "name": "owner",
          "type": "address"
        }
      ],
      "name": "OwnableInvalidOwner",
      "type": "error"
    },
    {
      "inputs": [
        {
          "internalType": "address",
          "name": "account",
          "type": "address"
        }
      ],
      "name": "OwnableUnauthorizedAccount",
      "type": "error"
    },
    {
      "anonymous": false,
      "inputs": [
        {
          "indexed": true,
          "internalType": "address",
          "name": "owner",
          "type": "address"
        },
        {
          "indexed": true,
          "internalType": "address",
          "name": "spender",
          "type": "address"
        },
        {
          "indexed": false,
          "internalType": "uint256",
          "name": "value",
          "type": "uint256"
        }
      ],
      "name": "Approval",
      "type": "event"
    },
    {
      "anonymous": false,
      "inputs": [
        {
          "indexed": true,
          "internalType": "address",
          "name": "newMinter",
          "type": "address"
        }
      ],
      "name": "MinterChanged",
      "type": "event"
    },
    {
      "anonymous": false,
      "inputs": [
        {
          "indexed": true,
          "internalType": "address",
          "name": "previousOwner",
          "type": "address"
        },
        {
          "indexed": true,
          "internalType": "address",
          "name": "newOwner",
          "type": "address"
        }
      ],
      "name": "OwnershipTransferred",
      "type": "event"
    },
    {
      "anonymous": false,
      "inputs": [
        {
          "indexed": true,
          "internalType": "address",
          "name": "from",
          "type": "address"
        },
        {
          "indexed": true,
          "internalType": "address",
          "name": "to",
          "type": "address"
        },
        {
          "indexed": false,
          "internalType": "uint256",
          "name": "value",
          "type": "uint256"
        }
      ],
      "name": "Transfer",
      "type": "event"
    },
    {
      "inputs": [
        {
          "internalType": "address",
          "name": "owner",
          "type": "address"
        },
        {
          "internalType": "address",
          "name": "spender",
          "type": "address"
        }
      ],
      "name": "allowance",
      "outputs": [
        {
          "internalType": "uint256",
          "name": "",
          "type": "uint256"
        }
      ],
      "stateMutability": "view",
      "type": "function"
    },
    {
      "inputs": [
        {
          "internalType": "address",
          "name": "spender",
          "type": "address"
        },
        {
          "internalType": "uint256",
          "name": "value",
          "type": "uint256"
        }
      ],
      "name": "approve",
      "outputs": [
        {
          "internalType": "bool",
          "name": "",
          "type": "bool"
        }
      ],
      "stateMutability": "nonpayable",
      "type": "function"
    },
    {
      "inputs": [
        {
          "internalType": "address",
          "name": "account",
          "type": "address"
        }
      ],
      "name": "balanceOf",
      "outputs": [
        {
          "internalType": "uint256",
          "name": "",
          "type": "uint256"
        }
      ],
      "stateMutability": "view",
      "type": "function"
    },
    {
      "inputs": [],
      "name": "decimals",
      "outputs": [
        {
          "internalType": "uint8",
          "name": "",
          "type": "uint8"
        }
      ],
      "stateMutability": "view",
      "type": "function"
    },
    {
      "inputs": [
        {
          "internalType": "address",
          "name": "account",
          "type": "address"
        },
        {
          "internalType": "uint256",
          "name": "amount",
          "type": "uint256"
        }
      ],
      "name": "mint",
      "outputs": [],
      "stateMutability": "nonpayable",
      "type": "function"
    },
    {
      "inputs": [],
      "name": "minter",
      "outputs": [
        {
          "internalType": "address",
          "name": "",
          "type": "address"
        }
      ],
      "stateMutability": "view",
      "type": "function"
    },
    {
      "inputs": [],
      "name": "name",
      "outputs": [
        {
          "internalType": "string",
          "name": "",
          "type": "string"
        }
      ],
      "stateMutability": "view",
      "type": "function"
    },
    {
      "inputs": [],
      "name": "owner",
      "outputs": [
        {
          "internalType": "address",
          "name": "",
          "type": "address"
        }
      ],
      "stateMutability": "view",
      "type": "function"
    },
    {
      "inputs": [],
      "name": "renounceOwnership",
      "outputs": [],
      "stateMutability": "nonpayable",
      "type": "function"
    },
    {
      "inputs": [
        {
          "internalType": "address",
          "name": "_minter",
          "type": "address"
        }
      ],
      "name": "setMinter",
      "outputs": [],
      "stateMutability": "nonpayable",
      "type": "function"
    },
    {
      "inputs": [],
      "name": "symbol",
      "outputs": [
        {
          "internalType": "string",
          "name": "",
          "type": "string"
        }
      ],
      "stateMutability": "view",
      "type": "function"
    },
    {
      "inputs": [],
      "name": "totalSupply",
      "outputs": [
        {
          "internalType": "uint256",
          "name": "",
          "type": "uint256"
        }
      ],
      "stateMutability": "view",
      "type": "function"
    },
    {
      "inputs": [
        {
          "internalType": "address",
          "name": "to",
          "type": "address"
        },
        {
          "internalType": "uint256",
          "name": "value",
          "type": "uint256"
        }
      ],
      "name": "transfer",
      "outputs": [
        {
          "internalType": "bool",
          "name": "",
          "type": "bool"
        }
      ],
      "stateMutability": "nonpayable",
      "type": "function"
    },
    {
      "inputs": [
        {
          "internalType": "address",
          "name": "from",
          "type": "address"
        },
        {
          "internalType": "address",
          "name": "to",
          "type": "address"
        },
        {
          "internalType": "uint256",
          "name": "value",
          "type": "uint256"
        }
      ],
      "name": "transferFrom",
      "outputs": [
        {
          "internalType": "bool",
          "name": "",
          "type": "bool"
        }
      ],
      "stateMutability": "nonpayable",
      "type": "function"
    },
    {
      "inputs": [
        {
          "internalType": "address",
          "name": "newOwner",
          "type": "address"
        }
      ],
      "name": "transferOwnership",
      "outputs": [],
      "stateMutability": "nonpayable",
      "type": "function"
    }
  ],
  "bytecode": "0x60806040523480156200001157600080fd5b5060405162000d3238038062000d32833981016040819052620000349162000140565b806040518060400160405280600c81526020016b467565676f20456d6265727360a01b815250604051806040016040528060048152602001631211505560e21b815250816003908162000088919062000217565b50600462000097828262000217565b5050506001600160a01b038116620000c957604051631e4fbdf760e01b81526000600482015260240160405180910390fd5b620000d481620000ee565b5050600680546001600160a01b03191633179055620002e3565b600580546001600160a01b038381166001600160a01b0319831681179093556040519116919082907f8be0079c531659141344cd1fd0a4f28419497f9722a3daafe3b4186f6b6457e090600090a35050565b6000602082840312156200015357600080fd5b81516001600160a01b03811681146200016b57600080fd5b9392505050565b634e487b7160e01b600052604160045260246000fd5b600181811c908216806200019d57607f821691505b602082108103620001be57634e487b7160e01b600052602260045260246000fd5b50919050565b601f8211156200021257600081815260208120601f850160051c81016020861015620001ed5750805b601f850160051c820191505b818110156200020e57828155600101620001f9565b5050505b505050565b81516001600160401b0381111562000233576200023362000172565b6200024b8162000244845462000188565b84620001c4565b602080601f8311600181146200028357600084156200026a5750858301515b600019600386901b1c1916600185901b1785556200020e565b600085815260208120601f198616915b82811015620002b45788860151825594840194600190910190840162000293565b5085821015620002d35787850151600019600388901b60f8161c191681555b5050505050600190811b01905550565b610a3f80620002f36000396000f3fe608060405234801561001057600080fd5b50600436106100f55760003560e01c806370a0823111610097578063a9059cbb11610066578063a9059cbb146101f9578063dd62ed3e1461020c578063f2fde38b14610245578063fca3b5aa1461025857600080fd5b806370a08231146101af578063715018a6146101d85780638da5cb5b146101e057806395d89b41146101f157600080fd5b806318160ddd116100d357806318160ddd1461016657806323b872dd14610178578063313ce5671461018b57806340c10f191461019a57600080fd5b806306fdde03146100fa5780630754617214610118578063095ea7b314610143575b600080fd5b61010261026b565b60405161010f9190610889565b60405180910390f35b60065461012b906001600160a01b031681565b6040516001600160a01b03909116815260200161010f565b6101566101513660046108f3565b6102fd565b604051901515815260200161010f565b6002545b60405190815260200161010f565b61015661018636600461091d565b610317565b6040516012815260200161010f565b6101ad6101a83660046108f3565b61033b565b005b61016a6101bd366004610959565b6001600160a01b031660009081526020819052604090205490565b6101ad6103b6565b6005546001600160a01b031661012b565b6101026103ca565b6101566102073660046108f3565b6103d9565b61016a61021a36600461097b565b6001600160a01b03918216600090815260016020908152604080832093909416825291909152205490565b6101ad610253366004610959565b6103e7565b6101ad610266366004610959565b610425565b60606003805461027a906109ae565b80601f01602080910402602001604051908101604052809291908181526020018280546102a6906109ae565b80156102f35780601f106102c8576101008083540402835291602001916102f3565b820191906000526020600020905b8154815290600101906020018083116102d657829003601f168201915b5050505050905090565b60003361030b8185856104e5565b60019150505b92915050565b6000336103258582856104f7565b610330858585610576565b506001949350505050565b6006546001600160a01b031633146103a85760405162461bcd60e51b815260206004820152602560248201527f456d62657273546f6b656e3a2063616c6c6572206973206e6f7420746865206d60448201526434b73a32b960d91b60648201526084015b60405180910390fd5b6103b282826105d5565b5050565b6103be61060b565b6103c86000610638565b565b60606004805461027a906109ae565b60003361030b818585610576565b6103ef61060b565b6001600160a01b03811661041957604051631e4fbdf760e01b81526000600482015260240161039f565b61042281610638565b50565b6006546001600160a01b0316331461049b5760405162461bcd60e51b815260206004820152603360248201527f456d62657273546f6b656e3a206f6e6c792063757272656e74206d696e7465726044820152721031b0b71039b2ba103732bb9036b4b73a32b960691b606482015260840161039f565b600680546001600160a01b0319166001600160a01b0383169081179091556040517fb6b8f1859c5c352e5ffad07d0f77e384ac725512c015bd3a3ffc885831c8a42590600090a250565b6104f2838383600161068a565b505050565b6001600160a01b03838116600090815260016020908152604080832093861683529290522054600019811015610570578181101561056157604051637dc7a0d960e11b81526001600160a01b0384166004820152602481018290526044810183905260640161039f565b6105708484848403600061068a565b50505050565b6001600160a01b0383166105a057604051634b637e8f60e11b81526000600482015260240161039f565b6001600160a01b0382166105ca5760405163ec442f0560e01b81526000600482015260240161039f565b6104f283838361075f565b6001600160a01b0382166105ff5760405163ec442f0560e01b81526000600482015260240161039f565b6103b26000838361075f565b6005546001600160a01b031633146103c85760405163118cdaa760e01b815233600482015260240161039f565b600580546001600160a01b038381166001600160a01b0319831681179093556040519116919082907f8be0079c531659141344cd1fd0a4f28419497f9722a3daafe3b4186f6b6457e090600090a35050565b6001600160a01b0384166106b45760405163e602df0560e01b81526000600482015260240161039f565b6001600160a01b0383166106de57604051634a1406b160e11b81526000600482015260240161039f565b6001600160a01b038085166000908152600160209081526040808320938716835292905220829055801561057057826001600160a01b0316846001600160a01b03167f8c5be1e5ebec7d5bd14f71427d1e84f3dd0314c0f7b2291e5b200ac8c7c3b9258460405161075191815260200190565b60405180910390a350505050565b6001600160a01b03831661078a57806002600082825461077f91906109e8565b909155506107fc9050565b6001600160a01b038316600090815260208190526040902054818110156107dd5760405163391434e360e21b81526001600160a01b0385166004820152602481018290526044810183905260640161039f565b6001600160a01b03841660009081526020819052604090209082900390555b6001600160a01b03821661081857600280548290039055610837565b6001600160a01b03821660009081526020819052604090208054820190555b816001600160a01b0316836001600160a01b03167fddf252ad1be2c89b69c2b068fc378daa952ba7f163c4a11628f55a4df523b3ef8360405161087c91815260200190565b60405180910390a3505050565b600060208083528351808285015260005b818110156108b65785810183015185820160400152820161089a565b506000604082860101526040601f19601f8301168501019250505092915050565b80356001600160a01b03811681146108ee57600080fd5b919050565b6000806040838503121561090657600080fd5b61090f836108d7565b946020939093013593505050565b60008060006060848603121561093257600080fd5b61093b846108d7565b9250610949602085016108d7565b9150604084013590509250925092565b60006020828403121561096b57600080fd5b610974826108d7565b9392505050565b6000806040838503121561098e57600080fd5b610997836108d7565b91506109a5602084016108d7565b90509250929050565b600181811c908216806109c257607f821691505b6020821081036109e257634e487b7160e01b600052602260045260246000fd5b50919050565b8082018082111561031157634e487b7160e01b600052601160045260246000fdfea264697066735822122054ec540bdf9ed4828861929dc61ddb6d3723829d321a83db1b0f34fc957cb92b64736f6c63430008140033",
  "linkReferences": {},
  "deployedLinkReferences": {}
}