{
  "_format": "hh-sol-artifact-1",
  "contractName": "COLDgovna",
  "sourceName": "contracts/COLDgovna.sol",
  "abi": [
    {
      "inputs": [
        {
          "internalType": "contract IVotes",
          "name": "_token",
          "type": "address"
        }
      ],
      "stateMutability": "nonpayable",
      "type": "constructor"
    },
    {
      "inputs": [],
      "name": "CheckpointUnorderedInsertion",
      "type": "error"
    },
    {
      "inputs": [],
      "name": "FailedCall",
      "type": "error"
    },
    {
      "inputs": [
        {
          "internalType": "address",
          "name": "voter",
          "type": "address"
        }
      ],
      "name": "GovernorAlreadyCastVote",
      "type": "error"
    },
    {
      "inputs": [
        {
          "internalType": "uint256",
          "name": "proposalId",
          "type": "uint256"
        }
      ],
      "name": "GovernorAlreadyQueuedProposal",
      "type": "error"
    },
    {
      "inputs": [],
      "name": "GovernorDisabledDeposit",
      "type": "error"
    },
    {
      "inputs": [
        {
          "internalType": "address",
          "name": "proposer",
          "type": "address"
        },
        {
          "internalType": "uint256",
          "name": "votes",
          "type": "uint256"
        },
        {
          "internalType": "uint256",
          "name": "threshold",
          "type": "uint256"
        }
      ],
      "name": "GovernorInsufficientProposerVotes",
      "type": "error"
    },
    {
      "inputs": [
        {
          "internalType": "uint256",
          "name": "targets",
          "type": "uint256"
        },
        {
          "internalType": "uint256",
          "name": "calldatas",
          "type": "uint256"
        },
        {
          "internalType": "uint256",
          "name": "values",
          "type": "uint256"
        }
      ],
      "name": "GovernorInvalidProposalLength",
      "type": "error"
    },
    {
      "inputs": [
        {
          "internalType": "uint256",
          "name": "quorumNumerator",
          "type": "uint256"
        },
        {
          "internalType": "uint256",
          "name": "quorumDenominator",
          "type": "uint256"
        }
      ],
      "name": "GovernorInvalidQuorumFraction",
      "type": "error"
    },
    {
      "inputs": [
        {
          "internalType": "address",
          "name": "voter",
          "type": "address"
        }
      ],
      "name": "GovernorInvalidSignature",
      "type": "error"
    },
    {
      "inputs": [],
      "name": "GovernorInvalidVoteParams",
      "type": "error"
    },
    {
      "inputs": [],
      "name": "GovernorInvalidVoteType",
      "type": "error"
    },
    {
      "inputs": [
        {
          "internalType": "uint256",
          "name": "votingPeriod",
          "type": "uint256"
        }
      ],
      "name": "GovernorInvalidVotingPeriod",
      "type": "error"
    },
    {
      "inputs": [
        {
          "internalType": "uint256",
          "name": "proposalId",
          "type": "uint256"
        }
      ],
      "name": "GovernorNonexistentProposal",
      "type": "error"
    },
    {
      "inputs": [
        {
          "internalType": "uint256",
          "name": "proposalId",
          "type": "uint256"
        }
      ],
      "name": "GovernorNotQueuedProposal",
      "type": "error"
    },
    {
      "inputs": [
        {
          "internalType": "address",
          "name": "account",
          "type": "address"
        }
      ],
      "name": "GovernorOnlyExecutor",
      "type": "error"
    },
    {
      "inputs": [],
      "name": "GovernorQueueNotImplemented",
      "type": "error"
    },
    {
      "inputs": [
        {
          "internalType": "address",
          "name": "proposer",
          "type": "address"
        }
      ],
      "name": "GovernorRestrictedProposer",
      "type": "error"
    },
    {
      "inputs": [
        {
          "internalType": "uint256",
          "name": "proposalId",
          "type": "uint256"
        },
        {
          "internalType": "address",
          "name": "account",
          "type": "address"
        }
      ],
      "name": "GovernorUnableToCancel",
      "type": "error"
    },
    {
      "inputs": [
        {
          "internalType": "uint256",
          "name": "proposalId",
          "type": "uint256"
        },
        {
          "internalType": "enum IGovernor.ProposalState",
          "name": "current",
          "type": "uint8"
        },
        {
          "internalType": "bytes32",
          "name": "expectedStates",
          "type": "bytes32"
        }
      ],
      "name": "GovernorUnexpectedProposalState",
      "type": "error"
    },
    {
      "inputs": [
        {
          "internalType": "address",
          "name": "account",
          "type": "address"
        },
        {
          "internalType": "uint256",
          "name": "currentNonce",
          "type": "uint256"
        }
      ],
      "name": "InvalidAccountNonce",
      "type": "error"
    },
    {
      "inputs": [],
      "name": "InvalidShortString",
      "type": "error"
    },
    {
      "inputs": [
        {
          "internalType": "uint8",
          "name": "bits",
          "type": "uint8"
        },
        {
          "internalType": "uint256",
          "name": "value",
          "type": "uint256"
        }
      ],
      "name": "SafeCastOverflowedUintDowncast",
      "type": "error"
    },
    {
      "inputs": [
        {
          "internalType": "string",
          "name": "str",
          "type": "string"
        }
      ],
      "name": "StringTooLong",
      "type": "error"
    },
    {
      "anonymous": false,
      "inputs": [],
      "name": "EIP712DomainChanged",
      "type": "event"
    },
    {
      "anonymous": false,
      "inputs": [
        {
          "indexed": false,
          "internalType": "uint256",
          "name": "proposalId",
          "type": "uint256"
        }
      ],
      "name": "ProposalCanceled",
      "type": "event"
    },
    {
      "anonymous": false,
      "inputs": [
        {
          "indexed": false,
          "internalType": "uint256",
          "name": "proposalId",
          "type": "uint256"
        },
        {
          "indexed": false,
          "internalType": "address",
          "name": "proposer",
          "type": "address"
        },
        {
          "indexed": false,
          "internalType": "address[]",
          "name": "targets",
          "type": "address[]"
        },
        {
          "indexed": false,
          "internalType": "uint256[]",
          "name": "values",
          "type": "uint256[]"
        },
        {
          "indexed": false,
          "internalType": "string[]",
          "name": "signatures",
          "type": "string[]"
        },
        {
          "indexed": false,
          "internalType": "bytes[]",
          "name": "calldatas",
          "type": "bytes[]"
        },
        {
          "indexed": false,
          "internalType": "uint256",
          "name": "voteStart",
          "type": "uint256"
        },
        {
          "indexed": false,
          "internalType": "uint256",
          "name": "voteEnd",
          "type": "uint256"
        },
        {
          "indexed": false,
          "internalType": "string",
          "name": "description",
          "type": "string"
        }
      ],
      "name": "ProposalCreated",
      "type": "event"
    },
    {
      "anonymous": false,
      "inputs": [
        {
          "indexed": false,
          "internalType": "uint256",
          "name": "proposalId",
          "type": "uint256"
        }
      ],
      "name": "ProposalExecuted",
      "type": "event"
    },
    {
      "anonymous": false,
      "inputs": [
        {
          "indexed": false,
          "internalType": "uint256",
          "name": "proposalId",
          "type": "uint256"
        },
        {
          "indexed": false,
          "internalType": "uint256",
          "name": "etaSeconds",
          "type": "uint256"
        }
      ],
      "name": "ProposalQueued",
      "type": "event"
    },
    {
      "anonymous": false,
      "inputs": [
        {
          "indexed": false,
          "internalType": "uint256",
          "name": "oldProposalThreshold",
          "type": "uint256"
        },
        {
          "indexed": false,
          "internalType": "uint256",
          "name": "newProposalThreshold",
          "type": "uint256"
        }
      ],
      "name": "ProposalThresholdSet",
      "type": "event"
    },
    {
      "anonymous": false,
      "inputs": [
        {
          "indexed": false,
          "internalType": "uint256",
          "name": "oldQuorumNumerator",
          "type": "uint256"
        },
        {
          "indexed": false,
          "internalType": "uint256",
          "name": "newQuorumNumerator",
          "type": "uint256"
        }
      ],
      "name": "QuorumNumeratorUpdated",
      "type": "event"
    },
    {
      "anonymous": false,
      "inputs": [
        {
          "indexed": true,
          "internalType": "address",
          "name": "voter",
          "type": "address"
        },
        {
          "indexed": false,
          "internalType": "uint256",
          "name": "proposalId",
          "type": "uint256"
        },
        {
          "indexed": false,
          "internalType": "uint8",
          "name": "support",
          "type": "uint8"
        },
        {
          "indexed": false,
          "internalType": "uint256",
          "name": "weight",
          "type": "uint256"
        },
        {
          "indexed": false,
          "internalType": "string",
          "name": "reason",
          "type": "string"
        }
      ],
      "name": "VoteCast",
      "type": "event"
    },
    {
      "anonymous": false,
      "inputs": [
        {
          "indexed": true,
          "internalType": "address",
          "name": "voter",
          "type": "address"
        },
        {
          "indexed": false,
          "internalType": "uint256",
          "name": "proposalId",
          "type": "uint256"
        },
        {
          "indexed": false,
          "internalType": "uint8",
          "name": "support",
          "type": "uint8"
        },
        {
          "indexed": false,
          "internalType": "uint256",
          "name": "weight",
          "type": "uint256"
        },
        {
          "indexed": false,
          "internalType": "string",
          "name": "reason",
          "type": "string"
        },
        {
          "indexed": false,
          "internalType": "bytes",
          "name": "params",
          "type": "bytes"
        }
      ],
      "name": "VoteCastWithParams",
      "type": "event"
    },
    {
      "anonymous": false,
      "inputs": [
        {
          "indexed": false,
          "internalType": "uint256",
          "name": "oldVotingDelay",
          "type": "uint256"
        },
        {
          "indexed": false,
          "internalType": "uint256",
          "name": "newVotingDelay",
          "type": "uint256"
        }
      ],
      "name": "VotingDelaySet",
      "type": "event"
    },
    {
      "anonymous": false,
      "inputs": [
        {
          "indexed": false,
          "internalType": "uint256",
          "name": "oldVotingPeriod",
          "type": "uint256"
        },
        {
          "indexed": false,
          "internalType": "uint256",
          "name": "newVotingPeriod",
          "type": "uint256"
        }
      ],
      "name": "VotingPeriodSet",
      "type": "event"
    },
    {
      "inputs": [],
      "name": "BALLOT_TYPEHASH",
      "outputs": [
        {
          "internalType": "bytes32",
          "name": "",
          "type": "bytes32"
        }
      ],
      "stateMutability": "view",
      "type": "function"
    },
    {
      "inputs": [],
      "name": "CLOCK_MODE",
      "outputs": [
        {
          "internalType": "string",
          "name": "",
          "type": "string"
        }
      ],
      "stateMutability": "view",
      "type": "function"
    },
    {
      "inputs": [],
      "name": "COUNTING_MODE",
      "outputs": [
        {
          "internalType": "string",
          "name": "",
          "type": "string"
        }
      ],
      "stateMutability": "pure",
      "type": "function"
    },
    {
      "inputs": [],
      "name": "EXTENDED_BALLOT_TYPEHASH",
      "outputs": [
        {
          "internalType": "bytes32",
          "name": "",
          "type": "bytes32"
        }
      ],
      "stateMutability": "view",
      "type": "function"
    },
    {
      "inputs": [
        {
          "internalType": "address[]",
          "name": "targets",
          "type": "address[]"
        },
        {
          "internalType": "uint256[]",
          "name": "values",
          "type": "uint256[]"
        },
        {
          "internalType": "bytes[]",
          "name": "calldatas",
          "type": "bytes[]"
        },
        {
          "internalType": "bytes32",
          "name": "descriptionHash",
          "type": "bytes32"
        }
      ],
      "name": "cancel",
      "outputs": [
        {
          "internalType": "uint256",
          "name": "",
          "type": "uint256"
        }
      ],
      "stateMutability": "nonpayable",
      "type": "function"
    },
    {
      "inputs": [
        {
          "internalType": "uint256",
          "name": "proposalId",
          "type": "uint256"
        },
        {
          "internalType": "uint8",
          "name": "support",
          "type": "uint8"
        }
      ],
      "name": "castVote",
      "outputs": [
        {
          "internalType": "uint256",
          "name": "",
          "type": "uint256"
        }
      ],
      "stateMutability": "nonpayable",
      "type": "function"
    },
    {
      "inputs": [
        {
          "internalType": "uint256",
          "name": "proposalId",
          "type": "uint256"
        },
        {
          "internalType": "uint8",
          "name": "support",
          "type": "uint8"
        },
        {
          "internalType": "address",
          "name": "voter",
          "type": "address"
        },
        {
          "internalType": "bytes",
          "name": "signature",
          "type": "bytes"
        }
      ],
      "name": "castVoteBySig",
      "outputs": [
        {
          "internalType": "uint256",
          "name": "",
          "type": "uint256"
        }
      ],
      "stateMutability": "nonpayable",
      "type": "function"
    },
    {
      "inputs": [
        {
          "internalType": "uint256",
          "name": "proposalId",
          "type": "uint256"
        },
        {
          "internalType": "uint8",
          "name": "support",
          "type": "uint8"
        },
        {
          "internalType": "string",
          "name": "reason",
          "type": "string"
        }
      ],
      "name": "castVoteWithReason",
      "outputs": [
        {
          "internalType": "uint256",
          "name": "",
          "type": "uint256"
        }
      ],
      "stateMutability": "nonpayable",
      "type": "function"
    },
    {
      "inputs": [
        {
          "internalType": "uint256",
          "name": "proposalId",
          "type": "uint256"
        },
        {
          "internalType": "uint8",
          "name": "support",
          "type": "uint8"
        },
        {
          "internalType": "string",
          "name": "reason",
          "type": "string"
        },
        {
          "internalType": "bytes",
          "name": "params",
          "type": "bytes"
        }
      ],
      "name": "castVoteWithReasonAndParams",
      "outputs": [
        {
          "internalType": "uint256",
          "name": "",
          "type": "uint256"
        }
      ],
      "stateMutability": "nonpayable",
      "type": "function"
    },
    {
      "inputs": [
        {
          "internalType": "uint256",
          "name": "proposalId",
          "type": "uint256"
        },
        {
          "internalType": "uint8",
          "name": "support",
          "type": "uint8"
        },
        {
          "internalType": "address",
          "name": "voter",
          "type": "address"
        },
        {
          "internalType": "string",
          "name": "reason",
          "type": "string"
        },
        {
          "internalType": "bytes",
          "name": "params",
          "type": "bytes"
        },
        {
          "internalType": "bytes",
          "name": "signature",
          "type": "bytes"
        }
      ],
      "name": "castVoteWithReasonAndParamsBySig",
      "outputs": [
        {
          "internalType": "uint256",
          "name": "",
          "type": "uint256"
        }
      ],
      "stateMutability": "nonpayable",
      "type": "function"
    },
    {
      "inputs": [],
      "name": "clock",
      "outputs": [
        {
          "internalType": "uint48",
          "name": "",
          "type": "uint48"
        }
      ],
      "stateMutability": "view",
      "type": "function"
    },
    {
      "inputs": [],
      "name": "eip712Domain",
      "outputs": [
        {
          "internalType": "bytes1",
          "name": "fields",
          "type": "bytes1"
        },
        {
          "internalType": "string",
          "name": "name",
          "type": "string"
        },
        {
          "internalType": "string",
          "name": "version",
          "type": "string"
        },
        {
          "internalType": "uint256",
          "name": "chainId",
          "type": "uint256"
        },
        {
          "internalType": "address",
          "name": "verifyingContract",
          "type": "address"
        },
        {
          "internalType": "bytes32",
          "name": "salt",
          "type": "bytes32"
        },
        {
          "internalType": "uint256[]",
          "name": "extensions",
          "type": "uint256[]"
        }
      ],
      "stateMutability": "view",
      "type": "function"
    },
    {
      "inputs": [
        {
          "internalType": "address[]",
          "name": "targets",
          "type": "address[]"
        },
        {
          "internalType": "uint256[]",
          "name": "values",
          "type": "uint256[]"
        },
        {
          "internalType": "bytes[]",
          "name": "calldatas",
          "type": "bytes[]"
        },
        {
          "internalType": "bytes32",
          "name": "descriptionHash",
          "type": "bytes32"
        }
      ],
      "name": "execute",
      "outputs": [
        {
          "internalType": "uint256",
          "name": "",
          "type": "uint256"
        }
      ],
      "stateMutability": "payable",
      "type": "function"
    },
    {
      "inputs": [
        {
          "internalType": "address[]",
          "name": "targets",
          "type": "address[]"
        },
        {
          "internalType": "uint256[]",
          "name": "values",
          "type": "uint256[]"
        },
        {
          "internalType": "bytes[]",
          "name": "calldatas",
          "type": "bytes[]"
        },
        {
          "internalType": "bytes32",
          "name": "descriptionHash",
          "type": "bytes32"
        }
      ],
      "name": "getProposalId",
      "outputs": [
        {
          "internalType": "uint256",
          "name": "",
          "type": "uint256"
        }
      ],
      "stateMutability": "view",
      "type": "function"
    },
    {
      "inputs": [
        {
          "internalType": "address",
          "name": "account",
          "type": "address"
        },
        {
          "internalType": "uint256",
          "name": "timepoint",
          "type": "uint256"
        }
      ],
      "name": "getVotes",
      "outputs": [
        {
          "internalType": "uint256",
          "name": "",
          "type": "uint256"
        }
      ],
      "stateMutability": "view",
      "type": "function"
    },
    {
      "inputs": [
        {
          "internalType": "address",
          "name": "account",
          "type": "address"
        },
        {
          "internalType": "uint256",
          "name": "timepoint",
          "type": "uint256"
        },
        {
          "internalType": "bytes",
          "name": "params",
          "type": "bytes"
        }
      ],
      "name": "getVotesWithParams",
      "outputs": [
        {
          "internalType": "uint256",
          "name": "",
          "type": "uint256"
        }
      ],
      "stateMutability": "view",
      "type": "function"
    },
    {
      "inputs": [
        {
          "internalType": "uint256",
          "name": "proposalId",
          "type": "uint256"
        },
        {
          "internalType": "address",
          "name": "account",
          "type": "address"
        }
      ],
      "name": "hasVoted",
      "outputs": [
        {
          "internalType": "bool",
          "name": "",
          "type": "bool"
        }
      ],
      "stateMutability": "view",
      "type": "function"
    },
    {
      "inputs": [
        {
          "internalType": "address[]",
          "name": "targets",
          "type": "address[]"
        },
        {
          "internalType": "uint256[]",
          "name": "values",
          "type": "uint256[]"
        },
        {
          "internalType": "bytes[]",
          "name": "calldatas",
          "type": "bytes[]"
        },
        {
          "internalType": "bytes32",
          "name": "descriptionHash",
          "type": "bytes32"
        }
      ],
      "name": "hashProposal",
      "outputs": [
        {
          "internalType": "uint256",
          "name": "",
          "type": "uint256"
        }
      ],
      "stateMutability": "pure",
      "type": "function"
    },
    {
      "inputs": [],
      "name": "name",
      "outputs": [
        {
          "internalType": "string",
          "name": "",
          "type": "string"
        }
      ],
      "stateMutability": "view",
      "type": "function"
    },
    {
      "inputs": [
        {
          "internalType": "address",
          "name": "owner",
          "type": "address"
        }
      ],
      "name": "nonces",
      "outputs": [
        {
          "internalType": "uint256",
          "name": "",
          "type": "uint256"
        }
      ],
      "stateMutability": "view",
      "type": "function"
    },
    {
      "inputs": [
        {
          "internalType": "address",
          "name": "",
          "type": "address"
        },
        {
          "internalType": "address",
          "name": "",
          "type": "address"
        },
        {
          "internalType": "uint256[]",
          "name": "",
          "type": "uint256[]"
        },
        {
          "internalType": "uint256[]",
          "name": "",
          "type": "uint256[]"
        },
        {
          "internalType": "bytes",
          "name": "",
          "type": "bytes"
        }
      ],
      "name": "onERC1155BatchReceived",
      "outputs": [
        {
          "internalType": "bytes4",
          "name": "",
          "type": "bytes4"
        }
      ],
      "stateMutability": "nonpayable",
      "type": "function"
    },
    {
      "inputs": [
        {
          "internalType": "address",
          "name": "",
          "type": "address"
        },
        {
          "internalType": "address",
          "name": "",
          "type": "address"
        },
        {
          "internalType": "uint256",
          "name": "",
          "type": "uint256"
        },
        {
          "internalType": "uint256",
          "name": "",
          "type": "uint256"
        },
        {
          "internalType": "bytes",
          "name": "",
          "type": "bytes"
        }
      ],
      "name": "onERC1155Received",
      "outputs": [
        {
          "internalType": "bytes4",
          "name": "",
          "type": "bytes4"
        }
      ],
      "stateMutability": "nonpayable",
      "type": "function"
    },
    {
      "inputs": [
        {
          "internalType": "address",
          "name": "",
          "type": "address"
        },
        {
          "internalType": "address",
          "name": "",
          "type": "address"
        },
        {
          "internalType": "uint256",
          "name": "",
          "type": "uint256"
        },
        {
          "internalType": "bytes",
          "name": "",
          "type": "bytes"
        }
      ],
      "name": "onERC721Received",
      "outputs": [
        {
          "internalType": "bytes4",
          "name": "",
          "type": "bytes4"
        }
      ],
      "stateMutability": "nonpayable",
      "type": "function"
    },
    {
      "inputs": [
        {
          "internalType": "uint256",
          "name": "proposalId",
          "type": "uint256"
        }
      ],
      "name": "proposalDeadline",
      "outputs": [
        {
          "internalType": "uint256",
          "name": "",
          "type": "uint256"
        }
      ],
      "stateMutability": "view",
      "type": "function"
    },
    {
      "inputs": [
        {
          "internalType": "uint256",
          "name": "proposalId",
          "type": "uint256"
        }
      ],
      "name": "proposalEta",
      "outputs": [
        {
          "internalType": "uint256",
          "name": "",
          "type": "uint256"
        }
      ],
      "stateMutability": "view",
      "type": "function"
    },
    {
      "inputs": [
        {
          "internalType": "uint256",
          "name": "",
          "type": "uint256"
        }
      ],
      "name": "proposalNeedsQueuing",
      "outputs": [
        {
          "internalType": "bool",
          "name": "",
          "type": "bool"
        }
      ],
      "stateMutability": "view",
      "type": "function"
    },
    {
      "inputs": [
        {
          "internalType": "uint256",
          "name": "proposalId",
          "type": "uint256"
        }
      ],
      "name": "proposalProposer",
      "outputs": [
        {
          "internalType": "address",
          "name": "",
          "type": "address"
        }
      ],
      "stateMutability": "view",
      "type": "function"
    },
    {
      "inputs": [
        {
          "internalType": "uint256",
          "name": "proposalId",
          "type": "uint256"
        }
      ],
      "name": "proposalSnapshot",
      "outputs": [
        {
          "internalType": "uint256",
          "name": "",
          "type": "uint256"
        }
      ],
      "stateMutability": "view",
      "type": "function"
    },
    {
      "inputs": [],
      "name": "proposalThreshold",
      "outputs": [
        {
          "internalType": "uint256",
          "name": "",
          "type": "uint256"
        }
      ],
      "stateMutability": "view",
      "type": "function"
    },
    {
      "inputs": [
        {
          "internalType": "uint256",
          "name": "proposalId",
          "type": "uint256"
        }
      ],
      "name": "proposalVotes",
      "outputs": [
        {
          "internalType": "uint256",
          "name": "againstVotes",
          "type": "uint256"
        },
        {
          "internalType": "uint256",
          "name": "forVotes",
          "type": "uint256"
        },
        {
          "internalType": "uint256",
          "name": "abstainVotes",
          "type": "uint256"
        }
      ],
      "stateMutability": "view",
      "type": "function"
    },
    {
      "inputs": [
        {
          "internalType": "address[]",
          "name": "targets",
          "type": "address[]"
        },
        {
          "internalType": "uint256[]",
          "name": "values",
          "type": "uint256[]"
        },
        {
          "internalType": "bytes[]",
          "name": "calldatas",
          "type": "bytes[]"
        },
        {
          "internalType": "string",
          "name": "description",
          "type": "string"
        }
      ],
      "name": "propose",
      "outputs": [
        {
          "internalType": "uint256",
          "name": "",
          "type": "uint256"
        }
      ],
      "stateMutability": "nonpayable",
      "type": "function"
    },
    {
      "inputs": [
        {
          "internalType": "address[]",
          "name": "targets",
          "type": "address[]"
        },
        {
          "internalType": "uint256[]",
          "name": "values",
          "type": "uint256[]"
        },
        {
          "internalType": "bytes[]",
          "name": "calldatas",
          "type": "bytes[]"
        },
        {
          "internalType": "bytes32",
          "name": "descriptionHash",
          "type": "bytes32"
        }
      ],
      "name": "queue",
      "outputs": [
        {
          "internalType": "uint256",
          "name": "",
          "type": "uint256"
        }
      ],
      "stateMutability": "nonpayable",
      "type": "function"
    },
    {
      "inputs": [
        {
          "internalType": "uint256",
          "name": "blockNumber",
          "type": "uint256"
        }
      ],
      "name": "quorum",
      "outputs": [
        {
          "internalType": "uint256",
          "name": "",
          "type": "uint256"
        }
      ],
      "stateMutability": "view",
      "type": "function"
    },
    {
      "inputs": [],
      "name": "quorumDenominator",
      "outputs": [
        {
          "internalType": "uint256",
          "name": "",
          "type": "uint256"
        }
      ],
      "stateMutability": "view",
      "type": "function"
    },
    {
      "inputs": [
        {
          "internalType": "uint256",
          "name": "timepoint",
          "type": "uint256"
        }
      ],
      "name": "quorumNumerator",
      "outputs": [
        {
          "internalType": "uint256",
          "name": "",
          "type": "uint256"
        }
      ],
      "stateMutability": "view",
      "type": "function"
    },
    {
      "inputs": [],
      "name": "quorumNumerator",
      "outputs": [
        {
          "internalType": "uint256",
          "name": "",
          "type": "uint256"
        }
      ],
      "stateMutability": "view",
      "type": "function"
    },
    {
      "inputs": [
        {
          "internalType": "address",
          "name": "target",
          "type": "address"
        },
        {
          "internalType": "uint256",
          "name": "value",
          "type": "uint256"
        },
        {
          "internalType": "bytes",
          "name": "data",
          "type": "bytes"
        }
      ],
      "name": "relay",
      "outputs": [],
      "stateMutability": "payable",
      "type": "function"
    },
    {
      "inputs": [
        {
          "internalType": "uint256",
          "name": "newProposalThreshold",
          "type": "uint256"
        }
      ],
      "name": "setProposalThreshold",
      "outputs": [],
      "stateMutability": "nonpayable",
      "type": "function"
    },
    {
      "inputs": [
        {
          "internalType": "uint48",
          "name": "newVotingDelay",
          "type": "uint48"
        }
      ],
      "name": "setVotingDelay",
      "outputs": [],
      "stateMutability": "nonpayable",
      "type": "function"
    },
    {
      "inputs": [
        {
          "internalType": "uint32",
          "name": "newVotingPeriod",
          "type": "uint32"
        }
      ],
      "name": "setVotingPeriod",
      "outputs": [],
      "stateMutability": "nonpayable",
      "type": "function"
    },
    {
      "inputs": [
        {
          "internalType": "uint256",
          "name": "proposalId",
          "type": "uint256"
        }
      ],
      "name": "state",
      "outputs": [
        {
          "internalType": "enum IGovernor.ProposalState",
          "name": "",
          "type": "uint8"
        }
      ],
      "stateMutability": "view",
      "type": "function"
    },
    {
      "inputs": [
        {
          "internalType": "bytes4",
          "name": "interfaceId",
          "type": "bytes4"
        }
      ],
      "name": "supportsInterface",
      "outputs": [
        {
          "internalType": "bool",
          "name": "",
          "type": "bool"
        }
      ],
      "stateMutability": "view",
      "type": "function"
    },
    {
      "inputs": [],
      "name": "token",
      "outputs": [
        {
          "internalType": "contract IERC5805",
          "name": "",
          "type": "address"
        }
      ],
      "stateMutability": "view",
      "type": "function"
    },
    {
      "inputs": [
        {
          "internalType": "uint256",
          "name": "newQuorumNumerator",
          "type": "uint256"
        }
      ],
      "name": "updateQuorumNumerator",
      "outputs": [],
      "stateMutability": "nonpayable",
      "type": "function"
    },
    {
      "inputs": [],
      "name": "version",
      "outputs": [
        {
          "internalType": "string",
          "name": "",
          "type": "string"
        }
      ],
      "stateMutability": "view",
      "type": "function"
    },
    {
      "inputs": [],
      "name": "votingDelay",
      "outputs": [
        {
          "internalType": "uint256",
          "name": "",
          "type": "uint256"
        }
      ],
      "stateMutability": "view",
      "type": "function"
    },
    {
      "inputs": [],
      "name": "votingPeriod",
      "outputs": [
        {
          "internalType": "uint256",
          "name": "",
          "type": "uint256"
        }
      ],
      "stateMutability": "view",
      "type": "function"
    },
    {
      "stateMutability": "payable",
      "type": "receive"
    }
  ],
  "bytecode": "0x6101806040523480156200001257600080fd5b50604051620047f3380380620047f38339810160408190526200003591620006f1565b600481600161b2fa600060405180604001604052806009815260200168434f4c44676f766e6160b81b81525080620000726200017c60201b60201c565b6200007f82600062000197565b610120526200009081600162000197565b61014052815160208084019190912060e052815190820120610100524660a0526200011e60e05161010051604080517f8b73c3c69bb8fe3d512ecc4cf759cc79239f7b179b0ffacaa9a75d522b39400f60208201529081019290925260608201524660808201523060a082015260009060c00160405160208183030381529060405280519060200120905090565b60805250503060c0526003620001358282620007c1565b5062000143905083620001d0565b6200014e8262000236565b6200015981620002dd565b5050506001600160a01b03166101605262000174816200031e565b50506200094e565b6040805180820190915260018152603160f81b602082015290565b6000602083511015620001b757620001af83620003be565b9050620001ca565b81620001c48482620007c1565b5060ff90505b92915050565b6008546040805165ffffffffffff928316815291831660208301527fc565b045403dc03c2eea82b81a0465edad9e2e7fc4d97e11421c209da93d7a93910160405180910390a16008805465ffffffffffff191665ffffffffffff92909216919091179055565b8063ffffffff16600003620002665760405163f1cfbf0560e01b8152600060048201526024015b60405180910390fd5b6008546040805163ffffffff66010000000000009093048316815291831660208301527f7e3f7f0708a84de9203036abaa450dccc85ad5ff52f78c170f3edb55cf5e8828910160405180910390a16008805463ffffffff90921666010000000000000263ffffffff60301b19909216919091179055565b60075460408051918252602082018390527fccb45da8d5717e6c4544694297c4ba5cf151d455c9bb0ed4fc7a38411bc05461910160405180910390a1600755565b6064808211156200034d5760405163243e544560e01b815260048101839052602481018290526044016200025d565b60006200035962000401565b90506200037e620003696200041d565b62000374856200049f565b600a9190620004d9565b505060408051828152602081018590527f0553476bf02ef2726e8ce5ced78d63e26e602e4a2257b1f559418e24b4633997910160405180910390a1505050565b600080829050601f81511115620003ec578260405163305a27a960e01b81526004016200025d91906200088d565b8051620003f982620008dd565b179392505050565b60006200040f600a620004f6565b6001600160d01b0316905090565b60006200042a6101605190565b6001600160a01b03166391ddadf46040518163ffffffff1660e01b8152600401602060405180830381865afa92505050801562000486575060408051601f3d908101601f19168201909252620004839181019062000902565b60015b6200049a576200049562000546565b905090565b919050565b60006001600160d01b03821115620004d5576040516306dfcc6560e41b815260d06004820152602481018390526044016200025d565b5090565b600080620004e985858562000553565b915091505b935093915050565b805460009080156200053c576200052283620005146001846200092c565b600091825260209091200190565b54660100000000000090046001600160d01b03166200053f565b60005b9392505050565b60006200049543620006bc565b8254600090819080156200065d5760006200057587620005146001856200092c565b805490915065ffffffffffff80821691660100000000000090046001600160d01b0316908816821115620005bc57604051632520601d60e01b815260040160405180910390fd5b8765ffffffffffff168265ffffffffffff1603620005fa57825465ffffffffffff1666010000000000006001600160d01b038916021783556200064e565b6040805180820190915265ffffffffffff808a1682526001600160d01b03808a1660208085019182528d54600181018f5560008f815291909120945191519092166601000000000000029216919091179101555b9450859350620004ee92505050565b50506040805180820190915265ffffffffffff80851682526001600160d01b0380851660208085019182528854600181018a5560008a8152918220955192519093166601000000000000029190931617920191909155905081620004ee565b600065ffffffffffff821115620004d5576040516306dfcc6560e41b815260306004820152602481018390526044016200025d565b6000602082840312156200070457600080fd5b81516001600160a01b03811681146200053f57600080fd5b634e487b7160e01b600052604160045260246000fd5b600181811c908216806200074757607f821691505b6020821081036200076857634e487b7160e01b600052602260045260246000fd5b50919050565b601f821115620007bc57600081815260208120601f850160051c81016020861015620007975750805b601f850160051c820191505b81811015620007b857828155600101620007a3565b5050505b505050565b81516001600160401b03811115620007dd57620007dd6200071c565b620007f581620007ee845462000732565b846200076e565b602080601f8311600181146200082d5760008415620008145750858301515b600019600386901b1c1916600185901b178555620007b8565b600085815260208120601f198616915b828110156200085e578886015182559484019460019091019084016200083d565b50858210156200087d5787850151600019600388901b60f8161c191681555b5050505050600190811b01905550565b600060208083528351808285015260005b81811015620008bc578581018301518582016040015282016200089e565b506000604082860101526040601f19601f8301168501019250505092915050565b80516020808301519190811015620007685760001960209190910360031b1b16919050565b6000602082840312156200091557600080fd5b815165ffffffffffff811681146200053f57600080fd5b81810381811115620001ca57634e487b7160e01b600052601160045260246000fd5b60805160a05160c05160e05161010051610120516101405161016051613e23620009d06000396000818161099101528181610e190152818161131401528181611e40015261203901526000611e0b01526000611dde015260006122620152600061223a01526000612195015260006121bf015260006121e90152613e236000f3fe60806040526004361061028c5760003560e01c80637d5e81e21161015a578063bc197c81116100c1578063e540d01d1161007a578063e540d01d146108d6578063eb9019d4146108f6578063ece40cc114610916578063f23a6e6114610936578063f8ce560a14610962578063fc0c546a1461098257600080fd5b8063bc197c81146107dd578063c01f9e3714610809578063c28bc2fa14610829578063c59057e41461083c578063dd4e2ba51461085c578063deaaa7cc146108a257600080fd5b80639a802a6d116101135780639a802a6d1461071a578063a7713a701461073a578063a8f8a6681461074f578063a9a952941461076f578063ab58fb8e14610790578063b58131b0146107c857600080fd5b80637d5e81e21461063c5780637ecebe001461065c57806384b0196e146106925780638ff262e3146106ba57806391ddadf4146106da57806397c3d3341461070657600080fd5b80633e4f49e6116101fe57806356781388116101b7578063567813881461057c5780635b8d0e0d1461059c5780635f398a14146105bc57806360c4247f146105dc57806379051887146105fc5780637b3c71d31461061c57600080fd5b80633e4f49e61461046b5780634385963214610498578063452115d6146104e25780634bf5d7e914610502578063544ffc9c1461051757806354fd4d501461055257600080fd5b8063150b7a0211610250578063150b7a021461038b578063160cbed7146103cf5780632656227d146103ef5780632d63f693146104025780632fe3e261146104225780633932abb11461045657600080fd5b806301ffc9a71461029a57806302a251a3146102cf57806306f3f9e6146102fb57806306fdde031461031b578063143489d01461033d57600080fd5b3661029557005b005b600080fd5b3480156102a657600080fd5b506102ba6102b5366004612e42565b6109b5565b60405190151581526020015b60405180910390f35b3480156102db57600080fd5b50600854600160301b900463ffffffff165b6040519081526020016102c6565b34801561030757600080fd5b50610293610316366004612e6c565b610a27565b34801561032757600080fd5b50610330610a3b565b6040516102c69190612ed5565b34801561034957600080fd5b50610373610358366004612e6c565b6000908152600460205260409020546001600160a01b031690565b6040516001600160a01b0390911681526020016102c6565b34801561039757600080fd5b506103b66103a6366004612fca565b630a85bd0160e11b949350505050565b6040516001600160e01b031990911681526020016102c6565b3480156103db57600080fd5b506102ed6103ea36600461319b565b610acd565b6102ed6103fd36600461319b565b610b0d565b34801561040e57600080fd5b506102ed61041d366004612e6c565b610c40565b34801561042e57600080fd5b506102ed7f3e83946653575f9a39005e1545185629e92736b7528ab20ca3816f315424a81181565b34801561046257600080fd5b506102ed610c61565b34801561047757600080fd5b5061048b610486366004612e6c565b610c74565b6040516102c69190613262565b3480156104a457600080fd5b506102ba6104b3366004613270565b60008281526009602090815260408083206001600160a01b038516845260030190915290205460ff1692915050565b3480156104ee57600080fd5b506102ed6104fd36600461319b565b610db3565b34801561050e57600080fd5b50610330610e15565b34801561052357600080fd5b50610537610532366004612e6c565b610ed7565b604080519384526020840192909252908201526060016102c6565b34801561055e57600080fd5b506040805180820190915260018152603160f81b6020820152610330565b34801561058857600080fd5b506102ed6105973660046132ad565b610efd565b3480156105a857600080fd5b506102ed6105b7366004613318565b610f26565b3480156105c857600080fd5b506102ed6105d73660046133d0565b611085565b3480156105e857600080fd5b506102ed6105f7366004612e6c565b6110cf565b34801561060857600080fd5b50610293610617366004613467565b6110dc565b34801561062857600080fd5b506102ed610637366004613484565b6110ed565b34801561064857600080fd5b506102ed6106573660046134dd565b61113f565b34801561066857600080fd5b506102ed610677366004613591565b6001600160a01b031660009081526002602052604090205490565b34801561069e57600080fd5b506106a76111f8565b6040516102c697969594939291906135e7565b3480156106c657600080fd5b506102ed6106d5366004613657565b61123e565b3480156106e657600080fd5b506106ef611310565b60405165ffffffffffff90911681526020016102c6565b34801561071257600080fd5b5060646102ed565b34801561072657600080fd5b506102ed6107353660046136a6565b611398565b34801561074657600080fd5b506102ed6113af565b34801561075b57600080fd5b506102ed61076a36600461319b565b6113c9565b34801561077b57600080fd5b506102ba61078a366004612e6c565b50600090565b34801561079c57600080fd5b506102ed6107ab366004612e6c565b60009081526004602052604090206001015465ffffffffffff1690565b3480156107d457600080fd5b506102ed6113e0565b3480156107e957600080fd5b506103b66107f83660046136fc565b63bc197c8160e01b95945050505050565b34801561081557600080fd5b506102ed610824366004612e6c565b6113eb565b61029361083736600461378b565b61142e565b34801561084857600080fd5b506102ed61085736600461319b565b6114ae565b34801561086857600080fd5b506040805180820190915260208082527f737570706f72743d627261766f2671756f72756d3d666f722c6162737461696e90820152610330565b3480156108ae57600080fd5b506102ed7ff2aad550cf55f045cb27e9c559f9889fdfb6e6cdaa032301d6ea397784ae51d781565b3480156108e257600080fd5b506102936108f13660046137cc565b6114e8565b34801561090257600080fd5b506102ed6109113660046137f2565b6114f9565b34801561092257600080fd5b50610293610931366004612e6c565b61151a565b34801561094257600080fd5b506103b661095136600461381c565b63f23a6e6160e01b95945050505050565b34801561096e57600080fd5b506102ed61097d366004612e6c565b61152b565b34801561098e57600080fd5b507f0000000000000000000000000000000000000000000000000000000000000000610373565b60006001600160e01b031982166366defe7760e11b14806109e657506001600160e01b031982166332a2ad4360e11b145b80610a0157506001600160e01b03198216630271189760e51b145b80610a1c57506301ffc9a760e01b6001600160e01b03198316145b92915050565b905090565b610a2f611536565b610a388161156d565b50565b606060038054610a4a90613880565b80601f0160208091040260200160405190810160405280929190818152602001828054610a7690613880565b8015610ac35780601f10610a9857610100808354040283529160200191610ac3565b820191906000526020600020905b815481529060010190602001808311610aa657829003601f168201915b5050505050905090565b600080610adc868686866113c9565b9050610af181610aec6004611603565b611626565b506000604051634844252360e11b815260040160405180910390fd5b600080610b1c868686866113c9565b9050610b3c81610b2c6005611603565b610b366004611603565b17611626565b506000818152600460205260409020805460ff60f01b1916600160f01b17905530610b643090565b6001600160a01b031614610bf65760005b8651811015610bf457306001600160a01b0316878281518110610b9a57610b9a6138ba565b60200260200101516001600160a01b031603610be457610be4858281518110610bc557610bc56138ba565b602002602001015180519060200120600561166590919063ffffffff16565b610bed816138e6565b9050610b75565b505b610c0381878787876116c7565b6040518181527f712ae1383f79ac853f8d882153778e0260ef8f03b504e2866e0593e04d2b291f906020015b60405180910390a195945050505050565b600090815260046020526040902054600160a01b900465ffffffffffff1690565b6000610a2260085465ffffffffffff1690565b6000818152600460205260408120805460ff600160f01b8204811691600160f81b9004168115610ca957506007949350505050565b8015610cba57506002949350505050565b6000610cc586610c40565b905080600003610cf057604051636ad0607560e01b8152600481018790526024015b60405180910390fd5b6000610cfa611310565b65ffffffffffff169050808210610d18575060009695505050505050565b6000610d23886113eb565b9050818110610d3a57506001979650505050505050565b610d43886117a7565b1580610d6357506000888152600960205260409020805460019091015411155b15610d7657506003979650505050505050565b60008881526004602052604090206001015465ffffffffffff16600003610da557506004979650505050505050565b506005979650505050505050565b600080610dc2868686866113c9565b905033610dcf82826117de565b610dfe57604051638fe5d8a960e01b8152600481018390526001600160a01b0382166024820152604401610ce7565b610e0a87878787611825565b979650505050505050565b60607f00000000000000000000000000000000000000000000000000000000000000006001600160a01b0316634bf5d7e96040518163ffffffff1660e01b8152600401600060405180830381865afa925050508015610e9657506040513d6000823e601f3d908101601f19168201604052610e9391908101906138ff565b60015b610ed2575060408051808201909152601d81527f6d6f64653d626c6f636b6e756d6265722666726f6d3d64656661756c74000000602082015290565b919050565b6000818152600960205260409020805460018201546002909201549091905b9193909250565b600080339050610f1e848285604051806020016040528060008152506118d6565b949350505050565b600080611009876110037f3e83946653575f9a39005e1545185629e92736b7528ab20ca3816f315424a8118c8c8c610f7b8e6001600160a01b0316600090815260026020526040902080546001810190915590565b8d8d604051610f8b92919061396c565b60405180910390208c80519060200120604051602001610fe89796959493929190968752602087019590955260ff9390931660408601526001600160a01b03919091166060850152608084015260a083015260c082015260e00190565b604051602081830303815290604052805190602001206118f9565b85611926565b905080611034576040516394ab6c0760e01b81526001600160a01b0388166004820152602401610ce7565b61107889888a89898080601f0160208091040260200160405190810160405280939291908181526020018383808284376000920191909152508b925061199a915050565b9998505050505050505050565b600080339050610e0a87828888888080601f0160208091040260200160405190810160405280939291908181526020018383808284376000920191909152508a925061199a915050565b6000610a1c600a83611a7c565b6110e4611536565b610a3881611acb565b60008033905061113586828787878080601f0160208091040260200160405190810160405280939291908181526020018383808284376000920191909152506118d692505050565b9695505050505050565b60003361114c8184611b31565b6111745760405163d9b3955760e01b81526001600160a01b0382166004820152602401610ce7565b600061117e6113e0565b905080156111eb5760006111ad836001611196611310565b6111a0919061397c565b65ffffffffffff166114f9565b9050818110156111e957604051636121770b60e11b81526001600160a01b03841660048201526024810182905260448101839052606401610ce7565b505b610e0a8787878786611bb7565b60006060806000806000606061120c611dd7565b611214611e04565b60408051600080825260208201909252600f60f81b9b939a50919850469750309650945092509050565b6000806112ca846110037ff2aad550cf55f045cb27e9c559f9889fdfb6e6cdaa032301d6ea397784ae51d78989896112938b6001600160a01b0316600090815260026020526040902080546001810190915590565b60408051602081019690965285019390935260ff90911660608401526001600160a01b0316608083015260a082015260c001610fe8565b9050806112f5576040516394ab6c0760e01b81526001600160a01b0385166004820152602401610ce7565b611135868587604051806020016040528060008152506118d6565b60007f00000000000000000000000000000000000000000000000000000000000000006001600160a01b03166391ddadf46040518163ffffffff1660e01b8152600401602060405180830381865afa92505050801561138c575060408051601f3d908101601f19168201909252611389918101906139a2565b60015b610ed257610a22611e31565b60006113a5848484611e3c565b90505b9392505050565b60006113bb600a611ed2565b6001600160d01b0316905090565b60006113d7858585856114ae565b95945050505050565b6000610a2260075490565b60008181526004602052604081205461142090600160d01b810463ffffffff1690600160a01b900465ffffffffffff166139bf565b65ffffffffffff1692915050565b611436611536565b600080856001600160a01b031685858560405161145492919061396c565b60006040518083038185875af1925050503d8060008114611491576040519150601f19603f3d011682016040523d82523d6000602084013e611496565b606091505b50915091506114a58282611f19565b50505050505050565b6000848484846040516020016114c79493929190613a6c565b60408051601f19818403018152919052805160209091012095945050505050565b6114f0611536565b610a3881611f35565b60006113a8838361151560408051602081019091526000815290565b611e3c565b611522611536565b610a3881611fd3565b6000610a1c82612014565b303314611558576040516347096e4760e01b8152336004820152602401610ce7565b565b8061156560056120b4565b0361155a5750565b60648082111561159a5760405163243e544560e01b81526004810183905260248101829052604401610ce7565b60006115a46113af565b90506115c36115b1611310565b6115ba85612123565b600a919061215b565b505060408051828152602081018590527f0553476bf02ef2726e8ce5ced78d63e26e602e4a2257b1f559418e24b4633997910160405180910390a1505050565b60008160078111156116175761161761322a565b600160ff919091161b92915050565b60008061163284610c74565b905060008361164083611603565b16036113a8578381846040516331b75e4d60e01b8152600401610ce793929190613ab7565b81546001600160801b03600160801b820481169181166001830190911603611691576116916041612176565b6001600160801b03808216600090815260018086016020526040909120939093558354919092018216600160801b029116179055565b60005b845181101561179f576000808683815181106116e8576116e86138ba565b60200260200101516001600160a01b031686848151811061170b5761170b6138ba565b6020026020010151868581518110611725576117256138ba565b602002602001015160405161173a9190613ad9565b60006040518083038185875af1925050503d8060008114611777576040519150601f19603f3d011682016040523d82523d6000602084013e61177c565b606091505b509150915061178b8282611f19565b50505080611798906138e6565b90506116ca565b505050505050565b6000818152600960205260408120600281015460018201546117c99190613af5565b6117d561097d85610c40565b11159392505050565b6000806117ea84610c74565b60078111156117fb576117fb61322a565b1480156113a8575050600091825260046020526040909120546001600160a01b0391821691161490565b600080611834868686866113c9565b9050611882816118446007611603565b61184e6006611603565b6118586002611603565b6001611865600782613b08565b611870906002613c05565b61187a9190613c14565b181818611626565b506000818152600460205260409081902080546001600160f81b0316600160f81b179055517f789cf55be980739dad1d0699b93b58e806b51c9d96619bfa8fe0a28abaa7b30c90610c2f9083815260200190565b60006113d7858585856118f460408051602081019091526000815290565b61199a565b6000610a1c611906612188565b8360405161190160f01b8152600281019290925260228201526042902090565b6000836001600160a01b03163b6000036119885760008061194785856122b3565b50909250905060008160038111156119615761196161322a565b14801561197f5750856001600160a01b0316826001600160a01b0316145b925050506113a8565b611993848484612300565b90506113a8565b60006119aa86610aec6001611603565b5060006119c0866119ba89610c40565b85611e3c565b905060006119d188888885886123db565b90508351600003611a2857866001600160a01b03167fb8e138887d0aa13bab447e82de9d5c1777041ecd21ca36ba824ff1e6c07ddda489888489604051611a1b9493929190613c27565b60405180910390a2610e0a565b866001600160a01b03167fe2babfbac5889a709b63bb7f598b324e08bc5a4fb9ec647fb3cbc9ec07eb87128988848989604051611a69959493929190613c4f565b60405180910390a2979650505050505050565b6000806000611a8a856124de565b9250925050838265ffffffffffff161115611ab757611ab2611aab8561253a565b869061256d565b611ab9565b805b6001600160d01b031695945050505050565b6008546040805165ffffffffffff928316815291831660208301527fc565b045403dc03c2eea82b81a0465edad9e2e7fc4d97e11421c209da93d7a93910160405180910390a16008805465ffffffffffff191665ffffffffffff92909216919091179055565b80516000906034811015611b49576001915050610a1c565b60131981840101516001600160b01b03198116692370726f706f7365723d60b01b14611b7a57600192505050610a1c565b600080611b8b86602a860386612614565b91509150811580610e0a5750866001600160a01b0316816001600160a01b031614979650505050505050565b6000611bcc86868686805190602001206113c9565b905084518651141580611be157508351865114155b80611beb57508551155b15611c2057855184518651604051630447b05d60e41b8152600481019390935260248301919091526044820152606401610ce7565b600081815260046020526040902054600160a01b900465ffffffffffff1615611c6b5780611c4d82610c74565b6040516331b75e4d60e01b8152610ce7929190600090600401613ab7565b6000611c75610c61565b611c7d611310565b65ffffffffffff16611c8f9190613af5565b90506000611caa60085463ffffffff600160301b9091041690565b600084815260046020526040902080546001600160a01b0319166001600160a01b038716178155909150611cdd8361253a565b815465ffffffffffff91909116600160a01b0265ffffffffffff60a01b19909116178155611d0a826126c3565b815463ffffffff91909116600160d01b0263ffffffff60d01b1990911617815588517f7d84a6263ae0d98d3329bd7b46bb4e8d6f98cd35a7adb45c274c8b7fd5ebd5e090859087908c908c906001600160401b03811115611d6d57611d6d612eff565b604051908082528060200260200182016040528015611da057816020015b6060815260200190600190039081611d8b5790505b508c89611dad8a82613af5565b8e604051611dc399989796959493929190613c95565b60405180910390a150505095945050505050565b6060610a227f000000000000000000000000000000000000000000000000000000000000000060006126f4565b6060610a227f000000000000000000000000000000000000000000000000000000000000000060016126f4565b6000610a224361253a565b60007f0000000000000000000000000000000000000000000000000000000000000000604051630748d63560e31b81526001600160a01b038681166004830152602482018690529190911690633a46b1a890604401602060405180830381865afa158015611eae573d6000803e3d6000fd5b505050506040513d601f19601f820116820180604052508101906113a59190613d6c565b80546000908015611f1057611efa83611eec600184613c14565b600091825260209091200190565b54600160301b90046001600160d01b03166113a8565b60009392505050565b606082611f2e57611f298261279f565b610a1c565b5080610a1c565b8063ffffffff16600003611f5f5760405163f1cfbf0560e01b815260006004820152602401610ce7565b6008546040805163ffffffff600160301b9093048316815291831660208301527f7e3f7f0708a84de9203036abaa450dccc85ad5ff52f78c170f3edb55cf5e8828910160405180910390a16008805463ffffffff909216600160301b0269ffffffff00000000000019909216919091179055565b60075460408051918252602082018390527fccb45da8d5717e6c4544694297c4ba5cf151d455c9bb0ed4fc7a38411bc05461910160405180910390a1600755565b604051632394e7a360e21b815260048101829052600090610a1c906001600160a01b037f00000000000000000000000000000000000000000000000000000000000000001690638e539e8c90602401602060405180830381865afa158015612080573d6000803e3d6000fd5b505050506040513d601f19601f820116820180604052508101906120a49190613d6c565b6120ad846110cf565b60646127c8565b80546000906001600160801b0380821691600160801b90041681036120dd576120dd6031612176565b6001600160801b038181166000908152600185810160205260408220805492905585546fffffffffffffffffffffffffffffffff19169301909116919091179092555090565b60006001600160d01b03821115612157576040516306dfcc6560e41b815260d0600482015260248101839052604401610ce7565b5090565b60008061216985858561287d565b915091505b935093915050565b634e487b71600052806020526024601cfd5b6000306001600160a01b037f0000000000000000000000000000000000000000000000000000000000000000161480156121e157507f000000000000000000000000000000000000000000000000000000000000000046145b1561220b57507f000000000000000000000000000000000000000000000000000000000000000090565b610a22604080517f8b73c3c69bb8fe3d512ecc4cf759cc79239f7b179b0ffacaa9a75d522b39400f60208201527f0000000000000000000000000000000000000000000000000000000000000000918101919091527f000000000000000000000000000000000000000000000000000000000000000060608201524660808201523060a082015260009060c00160405160208183030381529060405280519060200120905090565b600080600083516041036122ed5760208401516040850151606086015160001a6122df888285856129d1565b9550955095505050506122f9565b50508151600091506002905b9250925092565b6000806000856001600160a01b03168585604051602401612322929190613d85565b60408051601f198184030181529181526020820180516001600160e01b0316630b135d3f60e11b179052516123579190613ad9565b600060405180830381855afa9150503d8060008114612392576040519150601f19603f3d011682016040523d82523d6000602084013e612397565b606091505b50915091508180156123ab57506020815110155b801561113557508051630b135d3f60e11b906123d09083016020908101908401613d6c565b149695505050505050565b60008581526009602090815260408083206001600160a01b03881684526003810190925282205460ff161561242e576040516371c6af4960e01b81526001600160a01b0387166004820152602401610ce7565b6001600160a01b03861660009081526003820160205260409020805460ff1916600117905560ff851661247a578381600001600082825461246f9190613af5565b909155506124d39050565b60001960ff86160161249a578381600101600082825461246f9190613af5565b60011960ff8616016124ba578381600201600082825461246f9190613af5565b6040516303599be160e11b815260040160405180910390fd5b509195945050505050565b8054600090819081908082036124ff57600080600093509350935050610ef6565b600061251086611eec600185613c14565b546001955065ffffffffffff81169450600160301b90046001600160d01b03169250610ef6915050565b600065ffffffffffff821115612157576040516306dfcc6560e41b81526030600482015260248101839052604401610ce7565b8154600090818160058111156125cc57600061258884612aa0565b6125929085613c14565b60008881526020902090915081015465ffffffffffff90811690871610156125bc578091506125ca565b6125c7816001613af5565b92505b505b60006125da87878585612bf9565b90508015612607576125f187611eec600184613c14565b54600160301b90046001600160d01b0316610e0a565b5060009695505050505050565b600080845183118061262557508284115b156126355750600090508061216e565b6000612642856001613af5565b8411801561266a575061060f60f31b61265e8787016020015190565b6001600160f01b031916145b9050600061267b8215156002613d9e565b612686906028613af5565b9050806126938787613c14565b036126b5576000806126a6898989612c5b565b909650945061216e9350505050565b60008093509350505061216e565b600063ffffffff821115612157576040516306dfcc6560e41b81526020600482015260248101839052604401610ce7565b606060ff831461270e5761270783612d29565b9050610a1c565b81805461271a90613880565b80601f016020809104026020016040519081016040528092919081815260200182805461274690613880565b80156127935780601f1061276857610100808354040283529160200191612793565b820191906000526020600020905b81548152906001019060200180831161277657829003601f168201915b50505050509050610a1c565b8051156127af5780518082602001fd5b60405163d6bda27560e01b815260040160405180910390fd5b60008060006127d78686612d68565b91509150816000036127fc578381816127f2576127f2613db5565b04925050506113a8565b818411612813576128136003851502601118612176565b6000848688096000868103871696879004966002600389028118808a02820302808a02820302808a02820302808a02820302808a02820302808a02909103029181900381900460010185841190960395909502919093039390930492909217029150509392505050565b82546000908190801561297657600061289b87611eec600185613c14565b805490915065ffffffffffff80821691600160301b90046001600160d01b03169088168211156128de57604051632520601d60e01b815260040160405180910390fd5b8765ffffffffffff168265ffffffffffff160361291757825465ffffffffffff16600160301b6001600160d01b03891602178355612968565b6040805180820190915265ffffffffffff808a1682526001600160d01b03808a1660208085019182528d54600181018f5560008f81529190912094519151909216600160301b029216919091179101555b945085935061216e92505050565b50506040805180820190915265ffffffffffff80851682526001600160d01b0380851660208085019182528854600181018a5560008a815291822095519251909316600160301b02919093161792019190915590508161216e565b600080807f7fffffffffffffffffffffffffffffff5d576e7357a4501ddfe92f46681b20a0841115612a0c5750600091506003905082612a96565b604080516000808252602082018084528a905260ff891692820192909252606081018790526080810186905260019060a0016020604051602081039080840390855afa158015612a60573d6000803e3d6000fd5b5050604051601f1901519150506001600160a01b038116612a8c57506000925060019150829050612a96565b9250600091508190505b9450945094915050565b600060018211612aae575090565b816001600160801b8210612ac75760809190911c9060401b5b680100000000000000008210612ae25760409190911c9060201b5b6401000000008210612af95760209190911c9060101b5b620100008210612b0e5760109190911c9060081b5b6101008210612b225760089190911c9060041b5b60108210612b355760049190911c9060021b5b60048210612b415760011b5b600302600190811c90818581612b5957612b59613db5565b048201901c90506001818581612b7157612b71613db5565b048201901c90506001818581612b8957612b89613db5565b048201901c90506001818581612ba157612ba1613db5565b048201901c90506001818581612bb957612bb9613db5565b048201901c90506001818581612bd157612bd1613db5565b048201901c9050612bf0818581612bea57612bea613db5565b04821190565b90039392505050565b60005b81831015612c53576000612c108484612d86565b60008781526020902090915065ffffffffffff86169082015465ffffffffffff161115612c3f57809250612c4d565b612c4a816001613af5565b93505b50612bfc565b509392505050565b6000808481612c6b866001613af5565b85118015612c93575061060f60f31b612c878388016020015190565b6001600160f01b031916145b90506000612ca48215156002613d9e565b9050600080612cb3838a613af5565b90505b87811015612d18576000612cd5612cd08784016020015190565b612da1565b9050600f8160ff161115612cf5576000809750975050505050505061216e565b612d00601084613d9e565b60ff909116019150612d11816138e6565b9050612cb6565b506001999098509650505050505050565b60606000612d3683612e1a565b604080516020808252818301909252919250600091906020820181803683375050509182525060208101929092525090565b60008060001983850993909202808410938190039390930393915050565b6000612d956002848418613dcb565b6113a890848416613af5565b600060f882901c602f81118015612dbb5750603a8160ff16105b15612dc957602f1901610a1c565b60608160ff16118015612ddf575060678160ff16105b15612ded5760561901610a1c565b60408160ff16118015612e03575060478160ff16105b15612e115760361901610a1c565b5060ff92915050565b600060ff8216601f811115610a1c57604051632cd44ac360e21b815260040160405180910390fd5b600060208284031215612e5457600080fd5b81356001600160e01b0319811681146113a857600080fd5b600060208284031215612e7e57600080fd5b5035919050565b60005b83811015612ea0578181015183820152602001612e88565b50506000910152565b60008151808452612ec1816020860160208601612e85565b601f01601f19169290920160200192915050565b6020815260006113a86020830184612ea9565b80356001600160a01b0381168114610ed257600080fd5b634e487b7160e01b600052604160045260246000fd5b604051601f8201601f191681016001600160401b0381118282101715612f3d57612f3d612eff565b604052919050565b60006001600160401b03821115612f5e57612f5e612eff565b50601f01601f191660200190565b6000612f7f612f7a84612f45565b612f15565b9050828152838383011115612f9357600080fd5b828260208301376000602084830101529392505050565b600082601f830112612fbb57600080fd5b6113a883833560208501612f6c565b60008060008060808587031215612fe057600080fd5b612fe985612ee8565b9350612ff760208601612ee8565b92506040850135915060608501356001600160401b0381111561301957600080fd5b61302587828801612faa565b91505092959194509250565b60006001600160401b0382111561304a5761304a612eff565b5060051b60200190565b600082601f83011261306557600080fd5b81356020613075612f7a83613031565b82815260059290921b8401810191818101908684111561309457600080fd5b8286015b848110156130b6576130a981612ee8565b8352918301918301613098565b509695505050505050565b600082601f8301126130d257600080fd5b813560206130e2612f7a83613031565b82815260059290921b8401810191818101908684111561310157600080fd5b8286015b848110156130b65780358352918301918301613105565b600082601f83011261312d57600080fd5b8135602061313d612f7a83613031565b82815260059290921b8401810191818101908684111561315c57600080fd5b8286015b848110156130b65780356001600160401b0381111561317f5760008081fd5b61318d8986838b0101612faa565b845250918301918301613160565b600080600080608085870312156131b157600080fd5b84356001600160401b03808211156131c857600080fd5b6131d488838901613054565b955060208701359150808211156131ea57600080fd5b6131f6888389016130c1565b9450604087013591508082111561320c57600080fd5b506132198782880161311c565b949793965093946060013593505050565b634e487b7160e01b600052602160045260246000fd5b6008811061325e57634e487b7160e01b600052602160045260246000fd5b9052565b60208101610a1c8284613240565b6000806040838503121561328357600080fd5b8235915061329360208401612ee8565b90509250929050565b803560ff81168114610ed257600080fd5b600080604083850312156132c057600080fd5b823591506132936020840161329c565b60008083601f8401126132e257600080fd5b5081356001600160401b038111156132f957600080fd5b60208301915083602082850101111561331157600080fd5b9250929050565b600080600080600080600060c0888a03121561333357600080fd5b873596506133436020890161329c565b955061335160408901612ee8565b945060608801356001600160401b038082111561336d57600080fd5b6133798b838c016132d0565b909650945060808a013591508082111561339257600080fd5b61339e8b838c01612faa565b935060a08a01359150808211156133b457600080fd5b506133c18a828b01612faa565b91505092959891949750929550565b6000806000806000608086880312156133e857600080fd5b853594506133f86020870161329c565b935060408601356001600160401b038082111561341457600080fd5b61342089838a016132d0565b9095509350606088013591508082111561343957600080fd5b5061344688828901612faa565b9150509295509295909350565b65ffffffffffff81168114610a3857600080fd5b60006020828403121561347957600080fd5b81356113a881613453565b6000806000806060858703121561349a57600080fd5b843593506134aa6020860161329c565b925060408501356001600160401b038111156134c557600080fd5b6134d1878288016132d0565b95989497509550505050565b600080600080608085870312156134f357600080fd5b84356001600160401b038082111561350a57600080fd5b61351688838901613054565b9550602087013591508082111561352c57600080fd5b613538888389016130c1565b9450604087013591508082111561354e57600080fd5b61355a8883890161311c565b9350606087013591508082111561357057600080fd5b508501601f8101871361358257600080fd5b61302587823560208401612f6c565b6000602082840312156135a357600080fd5b6113a882612ee8565b600081518084526020808501945080840160005b838110156135dc578151875295820195908201906001016135c0565b509495945050505050565b60ff60f81b8816815260e06020820152600061360660e0830189612ea9565b82810360408401526136188189612ea9565b606084018890526001600160a01b038716608085015260a0840186905283810360c0850152905061364981856135ac565b9a9950505050505050505050565b6000806000806080858703121561366d57600080fd5b8435935061367d6020860161329c565b925061368b60408601612ee8565b915060608501356001600160401b0381111561301957600080fd5b6000806000606084860312156136bb57600080fd5b6136c484612ee8565b92506020840135915060408401356001600160401b038111156136e657600080fd5b6136f286828701612faa565b9150509250925092565b600080600080600060a0868803121561371457600080fd5b61371d86612ee8565b945061372b60208701612ee8565b935060408601356001600160401b038082111561374757600080fd5b61375389838a016130c1565b9450606088013591508082111561376957600080fd5b61377589838a016130c1565b9350608088013591508082111561343957600080fd5b600080600080606085870312156137a157600080fd5b6137aa85612ee8565b93506020850135925060408501356001600160401b038111156134c557600080fd5b6000602082840312156137de57600080fd5b813563ffffffff811681146113a857600080fd5b6000806040838503121561380557600080fd5b61380e83612ee8565b946020939093013593505050565b600080600080600060a0868803121561383457600080fd5b61383d86612ee8565b945061384b60208701612ee8565b9350604086013592506060860135915060808601356001600160401b0381111561387457600080fd5b61344688828901612faa565b600181811c9082168061389457607f821691505b6020821081036138b457634e487b7160e01b600052602260045260246000fd5b50919050565b634e487b7160e01b600052603260045260246000fd5b634e487b7160e01b600052601160045260246000fd5b6000600182016138f8576138f86138d0565b5060010190565b60006020828403121561391157600080fd5b81516001600160401b0381111561392757600080fd5b8201601f8101841361393857600080fd5b8051613946612f7a82612f45565b81815285602083850101111561395b57600080fd5b6113d7826020830160208601612e85565b8183823760009101908152919050565b65ffffffffffff82811682821603908082111561399b5761399b6138d0565b5092915050565b6000602082840312156139b457600080fd5b81516113a881613453565b65ffffffffffff81811683821601908082111561399b5761399b6138d0565b600081518084526020808501945080840160005b838110156135dc5781516001600160a01b0316875295820195908201906001016139f2565b600081518084526020808501808196508360051b8101915082860160005b85811015613a5f578284038952613a4d848351612ea9565b98850198935090840190600101613a35565b5091979650505050505050565b608081526000613a7f60808301876139de565b8281036020840152613a9181876135ac565b90508281036040840152613aa58186613a17565b91505082606083015295945050505050565b83815260608101613acb6020830185613240565b826040830152949350505050565b60008251613aeb818460208701612e85565b9190910192915050565b80820180821115610a1c57610a1c6138d0565b60ff8181168382160190811115610a1c57610a1c6138d0565b600181815b80851115613b5c578160001904821115613b4257613b426138d0565b80851615613b4f57918102915b93841c9390800290613b26565b509250929050565b600082613b7357506001610a1c565b81613b8057506000610a1c565b8160018114613b965760028114613ba057613bbc565b6001915050610a1c565b60ff841115613bb157613bb16138d0565b50506001821b610a1c565b5060208310610133831016604e8410600b8410161715613bdf575081810a610a1c565b613be98383613b21565b8060001904821115613bfd57613bfd6138d0565b029392505050565b60006113a860ff841683613b64565b81810381811115610a1c57610a1c6138d0565b84815260ff841660208201528260408201526080606082015260006111356080830184612ea9565b85815260ff8516602082015283604082015260a060608201526000613c7760a0830185612ea9565b8281036080840152613c898185612ea9565b98975050505050505050565b60006101208b8352602060018060a01b038c1681850152816040850152613cbe8285018c6139de565b91508382036060850152613cd2828b6135ac565b915083820360808501528189518084528284019150828160051b850101838c0160005b83811015613d2357601f19878403018552613d11838351612ea9565b94860194925090850190600101613cf5565b505086810360a0880152613d37818c613a17565b9450505050508560c08401528460e0840152828103610100840152613d5c8185612ea9565b9c9b505050505050505050505050565b600060208284031215613d7e57600080fd5b5051919050565b8281526040602082015260006113a56040830184612ea9565b8082028115828204841417610a1c57610a1c6138d0565b634e487b7160e01b600052601260045260246000fd5b600082613de857634e487b7160e01b600052601260045260246000fd5b50049056fea2646970667358221220467a86772f0c39b6170d4c4b8b9f7d5b32474cf38f01dcbdd9d95b19fcc9f54764736f6c63430008140033",
  "linkReferences": {},
  "deployedLinkReferences": {}
}